:020000040800F2
:10000000480600204501000819340008E92C0008C2
:1000100001330008F5060008A938000800000000B8
:100020000000000000000000000000003936000859
:10003000ED0900080000000035360008C53700084B
:100040005F0100085F0100085F0100085F01000810
:100050005F0100085F0100085F0100085F01000800
:100060005F0100085F0100085F0100085F010008F0
:100070005F0100085F0100085F0100085F010008E0
:100080005F0100085F0100085F0100085F010008D0
:100090005F0100085F0100085F0100085F010008C0
:1000A0005F0100085F0100085F0100085F010008B0
:1000B0005F0100085F0100085F0100085F010008A0
:1000C0005F0100085F0100085F0100085F01000890
:1000D0005F0100089D3800085F0100085F0100080B
:1000E0005F0100085F0100085F0100085F01000870
:1000F0005F0100085F0100085F0100085F01000860
:100100005F0100085F010008CD3700085F010008AB
:100110005F0100085F0100085F0100085F0100083F
:100120005F0100085F0100085F0100085F0100082F
:10013000DFF80CD000F07AFA0048004715390008C3
:10014000480600200648804706480047FEE7FEE7CD
:10015000FEE7FEE7FEE7FEE7FEE7FEE7FEE7FEE777
:10016000C9370008310100082DE9FE4F804681EAB9
:100170000300C00F0C46009021F0004123F0004521
:10018000B8EB0200A94105D24046214690461C46E4
:100190000B46024623F00040104347D0270DC7F31B
:1001A0000A00C3F30A510290401A019040286BDA0A
:1001B000C3F3130040F4801B0098924620B1002343
:1001C000D2EB030A63EB0B0B01985946C0F14002D6
:1001D000504600F09CF906460D4650465946019A95
:1001E00000F0B4F910EB08006141002487EA1152D5
:1001F00084EAE7731A4340D0009A62B3019A012A55
:100200004FEA075215DC001B61EB02014FF0004280
:1002100002EA0752CDE90042001C41F58011324646
:100220002B4600F0B4F903B0BDE8F08F40462146FC
:10023000F9E7001B61EB0201001C41F58013001877
:100240005B412018A2F5001747EB030140EAD57087
:10025000B6196D4111E06D084FEA360645EAC075E2
:100260004FEA0752001B61EB0201001C41F58011AF
:1002700049084FEA30000019514132462B4603B07D
:10028000BDE8F04F00F074B900980122400000234F
:10029000D0EB020263EBE073009821464FEAE07472
:1002A000B8EB000061EB0401E9E783F000435BE792
:1002B00081F0004158E72DE9FE4F81EA030404F084
:1002C000004421F0004100944FF0000B23F0004364
:1002D00050EA01045ED052EA03045BD0C3F30A542F
:1002E000C1F30A552C44A4F2F3340194A0FB025448
:1002F000C1F3130141F48011C3F3130343F48013DA
:1003000001FB024400FB034E840A970A44EA81542D
:1003100047EA8357A4FB076802958D0A05FB07850A
:100320004FEA932C04FB0C542705029D4FEA065814
:1003300047EA1637B5EB08056EEB070C870E920EF1
:1003400047EA811742EA8312A7FB0201B6EB0B01D1
:1003500064EB00042B0D43EA0C335E1844EB1C5095
:10036000DA465146E7FB0201C5F313044FEA0B33AB
:1003700043EA14534FEA0432019C43EA0603A4F112
:100380000C040294009CCDE900B400F000F903B025
:10039000BDE8F08F00200146F9E72DE9F04D81EA34
:1003A000030404F0004B21F0004514464FF0000A0E
:1003B00023F0004150EA050220D054EA01021DD08A
:1003C000C5F30A570246C5F31303C1F31300C1F383
:1003D0000A5640F4801543F48013A7EB0608101B5F
:1003E000D64608F2FD3873EB050002D308F1010888
:1003F00001E092185B41B8F1000F03DA00200146DA
:10040000BDE8F08D00204FF48011064684460EE0D2
:10041000171B73EB050705D3121B63EB050306439C
:100420004CEA010C49084FEA300092185B4150EA4F
:100430000107EDD152EA030012D082EA040083EAF8
:100440000501084305D0101BAB4106D20122002351
:1004500006E000224FF0004302E06FF0010253106B
:100460001AEB06004CEB085110EB0A0041EB0B01B4
:10047000BDE8F04D00F07CB830B5041E71F1000409
:1004800004DB4FF00044404264EB0101141E73F1A1
:10049000000405DB1C464FF00043524263EB0403AB
:1004A000101A8B4101D2012030BD002030BD0EB5A5
:1004B000C10F80EAE0700844CA07002140F23343CC
:1004C0008DE80E000A460B4600F061F803B000BD4F
:1004D00070B5C1F30A5201F000450024C1F31301C5
:1004E00040F2FF3341F480119A4201DA002070BDDE
:1004F00040F233439A42A2F2334203DC524200F00C
:1005000015F800E090402C43F1D0404270BD202A05
:1005100004DB203A00FA02F1002070479140C2F15A
:10052000200320FA03F3194390407047202A04DB8C
:10053000203A21FA02F00021704721FA02F3D0405C
:10054000C2F120029140084319467047202A06DB79
:10055000CB17203A41FA02F043EAE07306E041FA91
:1005600002F3D040C2F1200291400843194670477F
:1005700010B5141E73F1000408DA401C41F10001AB
:1005800092185B411A4301D120F0010010BD2DE902
:10059000F04D92469B4611B1B1FA81F202E0B0FAF9
:1005A00080F220329046FFF7B2FF04460F4640EA41
:1005B0000A0041EA0B0153465A46084313D011463C
:1005C00053EA010019D0C8F140025046FFF7AEFFD0
:1005D00005460E46504659464246FFF798FF0843E7
:1005E00005D0012004E020463946BDE8F08D00200A
:1005F000054346EAE0762C4337430A986305E40A4C
:10060000A0EB08000022FD0A44EA47540A3002D554
:1006100000200146E9E7010510196941DDE90845B7
:1006200000196941BDE8F04DA2E70000064C074DF6
:1006300006E0E06840F0010394E8070098471034B2
:10064000AC42F6D3FFF778FD803A0008A03A0008E4
:1006500040F28100C2F200008279037A40F2100079
:10066000012AC2F2000008BF002B09D00168012B4B
:1006700008BF002A0AD0AF290CDDAF210160704706
:10068000016803310160AF2904DDF6E70339016039
:10069000AF29F2DC4529C8BF704746210160704789
:1006A00040F28100C2F200004279C37940F2F800C2
:1006B000012AC2F2000008BF002B09D00168012BFB
:1006C00008BF002A0AD050290CDD50210160704774
:1006D000016805390160502904DDF6E70531016044
:1006E0005029F2DCB1F1FF3FC8BF70470021016023
:1006F00070470000FEE70000B0B540F28104C2F28E
:100700000004E078217950EA010213D10020002191
:1007100002F0F8FD0020002102F016FE002000216A
:1007200002F034FE0020002102F052FE02F076FEBC
:10073000E078217940F2E8050028C2F2000508BF00
:100740007F2957D0002808BF81296DD07F2808BF96
:10075000002900F08480812808BF002900F09A80D9
:10076000812808BF7F2900F0B080812808BF812937
:1007700000F0C4807F2808BF7F2900F0D8807F2840
:1007800008BF812900F0EC806178A078812908BF3A
:10079000002815D1B5F90010002002F0B3FDB5F91D
:1007A0000210012002F0D0FDB5F90410012002F082
:1007B000EDFDB5F90610012002F00AFE6178A0787F
:1007C0007F290CBF0028B0BDB5F90010012002F050
:1007D00099FDB5F90210002002F0B6FDB5F904103C
:1007E000002002F0D3FDB5F906100020BDE8B040AE
:1007F00002F0EEBDB5F90010012002F083FDB5F95D
:100800000210002002F0A0FDB5F90410012002F052
:10081000BDFDB5F90610012002F0DAFDE07821797E
:10082000002808BF812991D1B5F90010002002F0FD
:1008300069FDB5F90210012002F086FDB5F904103A
:10084000002002F0A3FDB5F90610002002F0C0FD63
:10085000E07821797F2808BF00297FF47CAFB5F9C3
:100860000010012002F04EFDB5F90210012002F047
:100870006BFDB5F90410012002F088FDB5F90610F2
:10088000002002F0A5FDE0782179812808BF002929
:100890007FF466AFB5F90010002002F033FDB5F922
:1008A0000210002002F050FDB5F90410002002F003
:1008B0006DFDB5F90610012002F08AFDE07821797E
:1008C000812808BF7F297FF450AF0120002102F06A
:1008D00019FDB5F90210002002F036FD01200021BB
:1008E00002F054FDB5F90610012002F071FDE07828
:1008F0002179812808BF81297FF43CAFB5F9001028
:10090000002002F0FFFC0120002102F01DFDB5F9DE
:100910000410002002F03AFD0120002102F058FDF1
:10092000E07821797F2808BF7F297FF428AFB5F9C7
:100930000010012002F0E6FC0120002102F004FD7D
:10094000B5F90410012002F021FD0120002102F080
:100950003FFDE07821797F2808BF81297FF414AF1B
:100960000120002102F0CEFCB5F90210012002F0B6
:10097000EBFC0120002102F009FDB5F90610002072
:1009800002F026FD00E7000040F28100C2F2000004
:10099000C17B007C012908BF002805D0002908BFC1
:1009A000012813D0704700BF40F21400C2F20000CB
:1009B000006840F29E718842B8BF014601F13200E2
:1009C00040F21401C2F200010860704740F21400C6
:1009D000C2F2000000683228D8BF3220323840F21C
:1009E0001401C2F200010860704700007047000067
:1009F000EFF3108072B600BFFEE70000F0B581B0E3
:100A00000446914288BF0A4602EB82008000FFF74D
:100A10004EFD4EF6A70242F2FF13C2F64862C4F240
:100A20000903FFF748FC0023C4F254030022FFF738
:100A300042FC4AF20003C4F274030022FFF7ADFC4B
:100A400044F20007C4F28F0700223B4605460E46DB
:100A5000FFF712FD00281CBF374628463946FFF72E
:100A600037FD208001B0F0BD014690F8210002283A
:100A700016D10868D1E90FC3026822F00E020260A5
:100A8000026822F001020260012000FA03F2CCF8B1
:100A9000042081F821000020002281F820207047E6
:100AA000042088630120002281F820207047000084
:100AB00080B590F82110022928D1026840F2040C78
:100AC0001368C4F2020C23F00E03136013680CF1D8
:100AD0007C018A4223F0010111601BD940F20841D8
:100AE000C4F202018A4249D040F21C41C4F2020120
:100AF0008A4247D040F23041C4F202018A4245D1D5
:100B00004FF48073CCF800345DE000BF04218163B2
:100B1000012080BD4321C4F202018A420EDD6B2117
:100B2000C4F202018A421BDC4421C4F202018A425F
:100B30003CD05821C4F202018A4233E00821C4F2B9
:100B400002018A4236D01C21C4F202018A4237D007
:100B50003021C4F202018A4224D14FF4807230E085
:100B60006C21C4F202018A4226D08021C4F2020123
:100B70008A4217D14FF0807223E000BF0123CCF8E6
:100B8000003420E01023CCF800341CE00CF5886120
:100B90004FF480338A4208BF4FF48053CCF80034BE
:100BA00011E000BF4FF480320BE000BF4FF48052E1
:100BB00007E000BF012204E04FF4801201E000BF13
:100BC0001022CCF80020416B4FF48072028401B1F6
:100BD0008847002080BD0000B0B5044600F01AF937
:100BE000054640F20400C2F200000078611C18BF04
:100BF000044400BF00F00EF9401BA042FAD3B0BD80
:100C00002DE9F04F82B0D1F800C0BCF1000F00F028
:100C1000F180A0F1804241F60045A2F58432C4F291
:100C2000010540F2004E4FEAB2240627A842C4F262
:100C3000010E08BF0527052C4FF000044FF00108F6
:100C40004FF00F034FF0000A4FF0000B38BF4FEA90
:100C5000B22700970AE000BFD1F800C00AF1010AEC
:100C60003CFA0AF204F1040400F0C48008FA0AF91C
:100C70001CEA090FF0D04E684FF6FF72C1F2100265
:100C8000964211DC122E55D8DFE806F0340A4448AB
:100C9000545454545454545454545454544C500074
:100CA000D1F80CB046E000BF4FF6FF72C1F221024E
:100CB00096420FDC0022C1F2110296421AD00022A5
:100CC000C1F21202964215D00022C1F221029642D0
:100CD00010D02FE00022C1F2220296420AD0002258
:100CE000C1F23102964205D00022C1F23202964290
:100CF00020D100BF8A684AB1012A14BFC0F81490FD
:100D0000C0F810904FF0080B14E000BF4FF0040B38
:100D100010E000BFCA6802F1080B0BE04FF0000BB7
:100D200008E000BFCA6802F1040B03E0CA6802F1E0
:100D30000C0B00BF22460646BAF1080F24BF203A2A
:100D40000436376803FA02F5AF430BFA02F23A436E
:100D50003260CA79D2067FF57FAF41F21807C4F23C
:100D600002073A684FF6084342F001023A603A68D7
:100D7000CFF6FF7302F001020192019A2AF00302FA
:100D800072440F25D75804F00C06B540AF43009DC0
:100D900005FA06F63743D7504E6840F20C45F20389
:100DA000DEF8002054BF22EA090242EA0902CEF826
:100DB0000020DEF80420B70354BF22EA090242EA09
:100DC0000902CEF80420DEF80820C4F20105F7027B
:100DD00054BF22EA090242EA0902CEF808200F2392
:100DE0002A68B70254BF22EA090242EA09022A60CD
:100DF00032E700BF02B0BDE8F08F00008068084015
:100E000018BF012070470000002A08BF09040161D3
:100E10007047000040F24420C2F2000000687047B2
:100E200040F2040040F24421C2F20000C2F200018C
:100E300000780A68104408607047000080B542F2EC
:100E40000000C4F20200016841F0100101600320BB
:100E500000F08EF80F2000F005F800F027F80020D1
:100E600080BD000070B540F20406C2F2000640F2F8
:100E70000C013278C2F200014FF47A730968B3FBB7
:100E8000F2F20446B1FBF2F1084600F063FB0F2CCE
:100E90004FF0010508D838B94FF0FF302146002245
:100EA000002500F039F87460284670BD82B041F228
:100EB0001800C4F202000168022241F00101016041
:100EC000016801F0010101910199416841F08051EF
:100ED0004160406800F08050009000980420C4F207
:100EE0000100016862F31A61016002B070470000FE
:100EF000002848BF7047C1B200F01F00012202FA6B
:100F000000F04EF20012CEF2000242EAD10121F0CE
:100F1000030108607047000010B54EF60C5CCEF27D
:100F2000000CDCF80030C3F3022E8EF00704042C12
:100F300028BF0424BEF103034FF0FF3E0EFA04F471
:100F400038BF0023A14399400EFA03F39A4311439B
:100F500000F00F0200F160430901043A03F5644315
:100F60006244002848BF02F10C03197010BD000054
:100F70004EF60C51CEF200010A684FF6FF031A40FC
:100F800060F30A2242F0806040F0FD700860704714
:100F90002DE9F04381B0002800F0858042F200087E
:100FA000C4F202080446D8F800000D4600F007001D
:100FB00088420CD2D8F8000020F007002843C8F877
:100FC0000000D8F8000000F00700A8426BD12068AC
:100FD00041F204098107C4F2020917D5410705D57A
:100FE000D9F8001041F4E061C9F80010010705D5F7
:100FF000D9F8001041F46051C9F80010D9F8001078
:10100000A26821F0F0011143C9F80010C00741D1D6
:10101000D8F8000000F00700A8420CD9D8F800006A
:1010200020F007002843C8F80000D8F8000000F0BE
:101030000700A84237D12068410707D5D9F800102A
:10104000E26821F4E0611143C9F80010000708D5F7
:10105000D9F80000216920F4605040EAC100C9F8C5
:101060000000D9F8002002F00C00082841F200200E
:10107000C0F27A0050D143F66E23C2F38341C0F62A
:101080000003595CD2033BD440F60010C0F23D008F
:10109000484341E0606802280AD001282AD159F863
:1010A000041C890308D4012001B0BDE8F08300BF0F
:1010B00059F8041C8901F6D5D9F8001021F0030174
:1010C0000843C9F80000FFF7A5FE064641F288373D
:1010D000D9F80000616800F00C00B0EB810F97D0E8
:1010E000FFF798FE801BB842F2D9032001B0BDE89B
:1010F000F08300BF59F8041C8907D4D5DCE700BF92
:10110000D9F8002043F65423C2F34042C0F600034E
:101110009A5C4843B0FBF2F0D9F8001043F656222F
:10112000C1F30311C0F60002515C40F20C0220FA38
:1011300001F140F20800C2F200000068C2F20002B1
:101140001160FFF78FFE002001B0BDE8F0830000C2
:1011500040F20C0041F20401C2F20000C4F20201AC
:101160000068096843F66622C1F30221C0F6000256
:10117000515CC8407047000040F20C0041F204018D
:10118000C2F20000C4F202010068096843F6662258
:10119000C1F3C221C0F60002515CC8407047000094
:1011A0002DE9F04182B0002868D00446007841F271
:1011B0000006C007C4F2020625D0706800F00C00DB
:1011C00004281BD0706800F00C00082802D1706859
:1011D000C00313D46068002800F06881B0F5A02F28
:1011E00000F07C81B0F5803F00F07C81306820F415
:1011F00080303060306820F4802076E130688003F1
:1012000001D56068D0B32078800718D5706810F0D9
:101210000C0F07D0706800F00C0008286ED17068C1
:10122000C0036BD43068800702D52069012825D11E
:101230003068616920F0F80040EAC1003060207831
:1012400000071FD42078400732D4E56995B1706853
:1012500000F00C00082840F08F80012D0ED070683F
:10126000216A00F480328A4208D1616A00F4701069
:10127000884203D1002002B0BDE8F081012002B015
:10128000BDE8F081A069002862D00020C4F24220AD
:101290000121C0F88014FFF7BDFD0546706A800784
:1012A00000F18C80FFF7B6FD401B0228F6D92AE139
:1012B000F06910F0805808D1F06940F08050F0617A
:1012C000F06900F080500090009847F20007C4F2E7
:1012D00000073868C00529D4386840F48070386049
:1012E000FFF798FD054600BF3868C0051ED4FFF71C
:1012F00091FD401B6428F7D905E100BF2069002853
:1013000040F20000C4F2422000F08280012101601E
:10131000FFF780FD054600BF306880073FF588AFC6
:10132000FFF778FD401B0228F6D9ECE0E0680028C2
:1013300000F08080052800F09780012800F0988058
:10134000306A20F001003062306A20F0040092E040
:101350000020C4F242200021C0F88014FFF75AFD9B
:10136000054600BF706A80077FF56CAFFFF752FD3E
:10137000401B0228F6D9C6E00027C4F2422700200D
:101380003866FFF747FD022D05460BD13068800116
:1013900040F1BE80FFF73EFD401B02284FF00300E6
:1013A000F4D968E7306880017FF564AFFFF732FD5C
:1013B000401B02284FF00300F4D95CE740F20C0018
:1013C000C2F20000006844F6D351C1F26201A0FBF2
:1013D0000101480A019000BF00BF0198411E00288A
:1013E00001913FF42FAF00BF0198411E00280191E9
:1013F0003FF428AF00BF0198411E002801913FF43F
:1014000021AF00BF0198411E00280191E4D119E7E6
:1014100000210160FFF7FEFC054600BF3068800731
:101420007FF50DAFFFF7F6FC401B02284FF00300DD
:10143000F4D920E7306A20F001003062306A20F0F1
:1014400004003062FFF7E6FC054641F2883700BF32
:10145000306A800720D5FFF7DDFC401BB8424FF013
:101460000300F5D907E700BF306A40F0040030629E
:10147000306A40F001003062FFF7CCFC054641F2D3
:10148000883700BF306A800706D4FFF7C3FC401BD3
:10149000B842F7D937E000BFB8F1000F7FF4D5AEFE
:1014A000F06920F08050F061CFE600BF306820F492
:1014B00080303060306820F480203060FFF7AAFC74
:1014C000054600BF306880037FF59DAEFFF7A2FCA4
:1014D000401B64284FF00300F4D9CCE6306840F498
:1014E00080203060306840F480303060FFF792FC3C
:1014F000054600BF306880033FF585AEFFF78AFCE4
:10150000401B6428F6D9032002B0BDE8F08100BF7B
:10151000206AB0F5803F05D17168A26821F40031DE
:10152000114371607168626A21F4741111430843B8
:10153000706001203866FFF76DFC0446306880015A
:101540003FF598AEFFF766FC001B02284FF0030042
:10155000F4D990E6411E0020B0EB116F1CBF0120B2
:1015600070474EF21002CEF2000251604EF6235147
:10157000CEF20001F0230B700721906011607047DC
:10158000704700007047000010B590F83C20012A19
:101590004FF002023FD080F83D200268D2F804E00C
:1015A000D2F808C00C682EF07003234340F6FF34D5
:1015B000C4F20004A242536010DCB2F1804F1FD08D
:1015C00040F20043C4F200039A4219D040F60003EF
:1015D000C4F200039A4213D017E000BF40F6004364
:1015E000C4F200039A420BD043F20043C4F2010359
:1015F0009A4205D042F60043C4F201039A4204D154
:1016000049682CF08003194391600121002280F881
:101610003D1080F83C20104610BD0000002804BF9B
:101620000120704710B5044690F83D0028B900200D
:1016300084F83C00204600F085F8022084F83D0044
:10164000206840F6FF330268C4F2000343F2004C06
:101650009842C4F2010C21DCB0F1804F2CD040F252
:101660000041C4F20001884226D040F60001C4F2D5
:101670000001884220D0984224DCB0F1804F2FD066
:1016800040F20041C4F20001884229D040F6000136
:10169000C4F20001884223D026E000BF40F600419A
:1016A000C4F20001884207D0604505D042F60041EF
:1016B000C4F201018842DED1A16822F070020A431F
:1016C0009842DADD40F60041C4F20001884207D0BA
:1016D000604505D042F60041C4F20101884203D1C1
:1016E000216922F440720A43A36922F08001D4F8F0
:1016F00004E0E268194360450160C262C0F828E076
:1017000005D042F60041C4F20101884201D161696D
:10171000016301214161002084F8461084F83E10E5
:1017200084F83F1084F8401084F8411084F8421087
:1017300084F8431084F8441084F8451084F83D1070
:1017400010BD000010B586B000680021A0F18040F7
:10175000A0F580604FEAB0200328059100F2778061
:10176000DFE800F00212226841F21C00C4F202001D
:10177000016841F002010160006800F00200019080
:10178000019806B010BD00BF41F21C00C4F2020077
:10179000016841F004010160006800F0040001905C
:1017A000019806B010BD00BF41F21C00C4F2020057
:1017B000016841F008010160016801F00801019130
:1017C000019950F8041C41F0040140F8041C50F841
:1017D000040C02A900F00400019001980F2002906F
:1017E0000020CDE9030040F60000C4F20100FFF73D
:1017F00007FA322000210022FFF78EFB3220FFF78C
:1018000077FB40F2A414C2F20004204600F022F854
:101810002046002100F04EFB2046042100F04AFB48
:101820002046082100F046FB20460C2100F042FB38
:1018300006B010BD41F21C00C4F20200016841F084
:1018400010010160006800F010000190019806B0DE
:1018500010BD000090F83D1001291CBF0120704709
:10186000022180F83D10006840F6FF32C168C4F2E2
:101870000002904241F00101C1600FDCB0F1804FE5
:101880001ED040F20041C4F20001884218D040F658
:101890000001C4F20001884212D018E040F6004175
:1018A000C4F2000188420BD043F20041C4F20101AE
:1018B000884205D042F60041C4F20101884206D1B7
:1018C000816801F00701062904BF00207047016804
:1018D00041F00101016000207047000080B590F8E0
:1018E0003C20012A4FF0020200F0BF8080F83D202A
:1018F000D0F800C04FF67772DCF8083023EA020215
:10190000CCF808200B683F2B1CDD5F2B20DD602B03
:1019100050D0B3F5005F6DD0702B40F0A080D1E9BE
:1019200001E3C968DCF8082043EA0E0322F47F4291
:1019300043EA01211143CCF80810DCF8081041F00B
:1019400077018AE01F2B29DC63B3102B2AD086E0B5
:10195000402B63D0502B40F08280D1F804E0C9685E
:10196000DCF82030DCF8202022F00102CCF8202026
:10197000DCF8182022F0F00242EA011123F00A02FA
:1019800042EA0E02CCF81810CCF82020DCF808103F
:1019900041F0570121F020015FE000BF202B01D072
:1019A000302B5CD1DCF8081021F07001194341F0B4
:1019B000070152E0D1F804E0C968DCF8203023F0D8
:1019C0001003CCF82030DCF81830DCF8202023F4A9
:1019D000704322F0A00243EA013142EA0E12CCF831
:1019E0001810CCF82020DCF8081041F0670121F035
:1019F000100132E0D1E901E3C968DCF8082043EACC
:101A00000E0322F47F4243EA01211143CCF808106F
:101A1000DCF8081041F480411FE000BFD1F804E079
:101A2000C968DCF82030DCF8202022F00102CCF874
:101A30002020DCF8182022F0F00242EA011123F005
:101A40000A0242EA0E02CCF81810CCF82020DCF88A
:101A5000081041F0470121F03001CCF808100121B5
:101A6000002280F83D1080F83C20104680BD000028
:101A700010B540F60044C4F201040168A4F58032B8
:101A8000914201D010BD00BF007F01380728F9D86E
:101A9000DFE800F0061C044604040472F2E700BF0D
:101AA00020464FF48051FFF7A9F9012840F09080BB
:101AB00040F2FC00C2F200000121017040F234202B
:101AC000C2F2000001880131018010BD20464FF4B0
:101AD0000051FFF793F901280CD140F23422C2F2F1
:101AE000000240F2FC009388C2F200000121017163
:101AF000581C908020464FF40051FFF77FF90028D2
:101B0000C0D140F2FC00C2F200000021017140F29D
:101B10003420C2F20000063001880131018010BD7E
:101B200020464FF48041FFF769F901280CD140F2BB
:101B30003422C2F2000240F2FC001389C2F200001B
:101B400001210172581C108120464FF48041FFF79B
:101B500055F900287FF496AF40F2FC00C2F2000075
:101B60000021017240F23420C2F200000A300188E4
:101B70000131018010BD00BF20464FF40041FFF746
:101B80003DF901280CD140F23422C2F2000240F2A9
:101B9000FC009389C2F2000001210173581C90815E
:101BA00020464FF40041FFF729F9002818BF10BD67
:101BB00040F2FC00C2F200000021017340F2342028
:101BC000C2F200000E3001880131018010BD00BF5B
:101BD00020464FF48051FFF711F900287FF452AFEF
:101BE00040F2FC00C2F200000021017040F23420FB
:101BF000C2F20000023001880131018010BD0000F6
:101C0000F0B590F83C30012B04BF0220F0BD082A4B
:101C100028D0042A44D0002A62D10368D1E900C543
:101C2000D1F80CE01A6A40F6FF3722F001021A627E
:101C30001A4652F8186F1C6AC4F20007BB4273DCE4
:101C4000B3F1804F00F0828040F20047C4F20007F9
:101C5000BB427BD040F60007C4F20007BB4275D000
:101C60008EE000BF0768D1E900C5D1E902313A6AC8
:101C700061F3071522F480723A623A4652F81C4F1B
:101C80003E6A24F0F30445EA04014FEA5C0565F37B
:101C9000492611603E62116821F00C01116066E076
:101CA0000368D1E900E6D1E902C11A6A360222F0DE
:101CB00010021A621A4652F8184F4FF2FF071D6AB7
:101CC000BE4324F4734461F30F3646EA040125F061
:101CD000A0040EF00A0744EA071711601F621CE017
:101CE0000368D1E900E6D1E902C11A6A360222F49A
:101CF00080521A621A4652F81C4F4FF2FF071D6AB3
:101D0000BE4324F4734461F30F364FEA5E0746EA9C
:101D1000040167F34D3511601D6211684FEA0C2311
:101D200021F44061116022E040F60047C4F2000750
:101D3000BB420BD043F20047C4F20107BB4205D0BF
:101D400042F60047C4F20107BB4219D126F0030650
:101D5000354324F00A070CF00A066EF307153744E2
:101D60009D611F629F6927F00C079F618B68116856
:101D700019431160002180F83C100846F0BD00BFF7
:101D800046F00105E5E70000002804BF0120704788
:101D900010B5044690F83D0028B9002084F83C00B6
:101DA000204600F085F8022084F83D00206840F6C7
:101DB000FF330268C4F2000343F2004C9842C4F2BD
:101DC000010C21DCB0F1804F2CD040F20041C4F274
:101DD0000001884226D040F60001C4F2000188428A
:101DE00020D0984224DCB0F1804F2FD040F2004147
:101DF000C4F20001884229D040F60001C4F200017B
:101E0000884223D026E000BF40F60041C4F2000122
:101E1000884207D0604505D042F60041C4F2010176
:101E20008842DED1A16822F070020A439842DADDCE
:101E300040F60041C4F20001884207D0604505D059
:101E400042F60041C4F20101884203D1216922F423
:101E500040720A43A36922F08001D4F804E0E268EA
:101E6000194360450160C262C0F828E005D042F61F
:101E70000041C4F20101884201D16169016301217D
:101E80004161002084F8461084F83E1084F83F1029
:101E900084F8401084F8411084F8421084F843100C
:101EA00084F8441084F8451084F83D1010BD0000FB
:101EB0007047000061B1082916D0042919BF00F14C
:101EC000410200F1450300F13F0200F143030FE03E
:101ED00090F83E2090F84230012A4FF0010208BFEE
:101EE000012B1BD01046704700F1400200F1440363
:101EF00012781B78012A4FF0010208BF012BF1D1A3
:101F00000222082914D0042924D180F83F2080F827
:101F100043204FEAB102032A12D923E0022280F8BB
:101F20003E2080F842204FEAB102032A08D919E086
:101F300080F8402080F844204FEAB102032A11D8EB
:101F4000DFE802F00212181E0068C26842F00202C6
:101F50001AE000BF80F8412080F845204FEAB10226
:101F6000032AEDD9006810E00068C26842F004025C
:101F70000AE000BF0068C26842F0080204E000BF47
:101F80000068C26842F01002C26001F01F01012225
:101F9000036A02FA01F123EA01020262026A1143B2
:101FA00040F6FF32C4F200029042016210DCB0F150
:101FB000804F1FD040F20041C4F20001884219D086
:101FC00040F60001C4F20001884213D019E000BFBE
:101FD00040F60041C4F2000188420BD043F20041B8
:101FE000C4F20101884205D042F60041C4F2010169
:101FF000884206D1816801F00701062904BF00204C
:1020000070470168002241F00101016010467047ED
:1020100010B5016804460869800744BFC8685FEAD4
:10202000807039D40869400744BFC8685FEA4070CF
:102030003ED40869000744BFC8685FEA007045D411
:102040000869C00644BFC8685FEAC0604AD408692E
:10205000C0071CBFC8685FEAC07051D1086900069C
:1020600044BFC8685FEA006052D40869400644BFB4
:10207000C8685FEA406053D40869800646BFC868F4
:102080005FEA806010BD6FF0200220460A61BDE863
:102090001040FFF777BA00BF6FF00200086101201F
:1020A00020778869800743D02046FFF7E1FC45E0B0
:1020B0006FF00400086102202077886910F4407FE7
:1020C00040D02046FFF7D4FC42E000BF6FF008008C
:1020D000086104202077C86980073DD02046FFF7BB
:1020E000C7FC3FE06FF01000086108202077C86946
:1020F00010F4407F3AD02046FFF7BAFC3CE000BF26
:102100006FF001000861204600F070FA2168A5E731
:102110006FF0800008612046FFF732FA2168A4E7DB
:102120006FF040000861204600F084FA2168A3E7C0
:10213000204600F025F8204600F0E4F92168002050
:1021400020776FE7204600F01BF8204600F0DAF910
:102150002168002020776CE7204600F011F8204627
:1021600000F0D0F921680020207769E7204600F0D0
:1021700007F8204600F0C6F921680020207766E7BE
:10218000704700002DE9F04190F83C30012B04BF6E
:102190000220BDE8F0814FEAB202032A00F2158165
:1021A000DFE802F0024690DA036843F200461A6A5A
:1021B000C4F2010622F001021A621D6A1A465C6826
:1021C00052F818EF8F68D1F800C025F00205B3422D
:1021D00045EA070505D042F60047C4F20107BB42B5
:1021E00005D1CF6825F00C0527F004073D43B34225
:1021F00005D042F60046C4F20106B34205D1D1E94A
:10220000056724F4407434433C432EF0730747EAD7
:102210000C075C609F614F6809695F631D629F697D
:1022200047F008079F619F6927F004079F61C9E095
:10223000036843F200461A6AC4F2010622F0100253
:102240001A621D6A1A46D3F804C052F8188F8F68B4
:10225000D1F800E025F02005B34245EA071505D086
:1022600042F60047C4F20107BB4207D1CF686FF0C6
:10227000400425F0C00504EA07142543B34205D005
:1022800042F60044C4F20104A34206D1D1E9054656
:102290002CF44067264347EA860C28F4E64444EAD7
:1022A0000E27C3F804C09F614F6809699F631D62D0
:1022B0009F6947F400679F619F6927F480679F616A
:1022C0007FE000BF036843F200461A6AC4F20106C9
:1022D00022F480721A621D6A1A46D3F804C052F8BA
:1022E0001CEF8F68D1F8008025F40075B34245EAF1
:1022F000072505D042F60047C4F20107BB4208D1CA
:10230000CF6840F2FF443F0225F4406527EA040409
:102310002543B34205D042F60044C4F20104A3426F
:1023200006D1D1E905462CF44057264347EA061C5E
:102330002EF0730747EA0807C3F804C0DF614F684F
:102340000969DF631D62DF6947F00807DF61DF6944
:1023500027F00407DF6135E0036843F200471A6A9B
:10236000C4F2010722F480521A621A46D3F820C040
:102370005D6852F81C4FD1F800E08E68BB4205D072
:1023800042F60047C4F20107BB4204D14F6925F46D
:10239000804545EA87152CF4005747EA063724F4B0
:1023A000E64646EA0E265D60DE614E6809691E64F7
:1023B0001F62DF6947F40067DF61DF6927F4806728
:1023C000DF610902136819431160002180F83C1095
:1023D0000846BDE8F0810000002804BF01207047D6
:1023E00010B5044690F83D0028B9002084F83C0060
:1023F000204600F085F8022084F83D00206840F671
:10240000FF330268C4F2000343F2004C9842C4F266
:10241000010C21DCB0F1804F2CD040F20041C4F21D
:102420000001884226D040F60001C4F20001884233
:1024300020D0984224DCB0F1804F2FD040F20041F0
:10244000C4F20001884229D040F60001C4F2000124
:10245000884223D026E000BF40F60041C4F20001CC
:10246000884207D0604505D042F60041C4F2010120
:102470008842DED1A16822F070020A439842DADD78
:1024800040F60041C4F20001884207D0604505D003
:1024900042F60041C4F20101884203D1216922F4CD
:1024A00040720A43A36922F08001D4F804E0E26894
:1024B000194360450160C262C0F828E005D042F6C9
:1024C0000041C4F20101884201D161690163012127
:1024D0004161002084F8461084F83E1084F83F10D3
:1024E00084F8401084F8411084F8421084F84310B6
:1024F00084F8441084F8451084F83D1010BD0000A5
:10250000704700007047000041B1082910D004292D
:1025100014BF00F1410200F13F020BE090F83E20B1
:10252000012A1CBF01207047022280F83E2013E0E0
:1025300000F140021278012A1CBF012070470222DC
:10254000082907D0042914BF80F8412080F83F20D3
:1025500002E000BF80F84020006801F01F01012266
:10256000036A02FA01F123EA01020262026A1143DC
:1025700040F6FF32C4F20002904201620EDCB0F17C
:10258000804F25D040F20041C4F2000188421FD0A4
:1025900040F60001C4F2000118E000BF40F600411F
:1025A000C4F20001884213D043F20042C4F2010297
:1025B00042F600419042C4F2010101D088420ED19E
:1025C000436C904243F40043436401D0884206D1F7
:1025D000816801F00701062904BF002070470168E7
:1025E00041F001010160002070470000B0B540F2E9
:1025F0003425C2F2000540F20C1429886A88C2F220
:1026000000042046FEF7FAF9A988EA88A01CFEF724
:10261000F5F929896A89201DFEF7F0F9A989EA8967
:10262000A01DFEF7EBF90020C5E90000C5E9020096
:10263000B0BD000070470000704700007047000008
:10264000B0B582B0026805461068D368546900F0DE
:102650002F01202903F0200106D129B1284602B01C
:10266000BDE8B04001F0BEB85FEA007C1EBF04F0D8
:10267000010E03F4907414EB0E0453D1296B01295D
:1026800005D110F0100118BF13F0100136D101066A
:1026900022D513F080011FD095F83D0021283FD1AD
:1026A000A868B0F5805F03D12869002800F0F880A1
:1026B000286A411C296200785060E88C01380104C6
:1026C000E8842DD1D06820F08000D060D06840F040
:1026D0004000D06002B0B0BD400621D513F04000EC
:1026E0001ED0D068202120F04000D060284685F818
:1026F0003D1002B0BDE8B04000F0F4BA00200190F7
:10270000106801905068019001985069400611D4FA
:10271000A88DE98DEB8D002B18BF884240F0A68074
:1027200002B0B0BDC40718BF13F480732CD14307A7
:1027300030D436E0A86B01684B689CB2002CEFD017
:10274000A98D8C42ECD2EB858369202B17D0D16800
:1027500021F48071D160516921F001015161516909
:1027600021F040015161202185F83E1000212963AC
:10277000D16821F01001D160FEF776F9A98DE88DBE
:10278000081A81B2284685E02B6C43F001032B64C4
:10279000430706D5BEF1000F03D02B6C43F00203B4
:1027A0002B64830706D5BEF1000F03D02B6C43F0DA
:1027B00004032B64BCF1000F09D541EA0E03B3FA00
:1027C00083F35B0903D12B6C43F008032B642B6C60
:1027D000002BA5D010F0200018BF002903D02846F8
:1027E00001F000F82A685069296C00F0400001F0FF
:1027F000080140182CD0D06820F49070D060506947
:1028000020F001005061286B012803D1D06820F02E
:102810001000D060202085F83E0000202863506919
:1028200040061DD5506920F040005061A86BB8B13A
:1028300043F2D971C0F600014163FEF739F900286F
:102840003FF46EAFA86B416B02B0BDE8B0400847E3
:102850002846FFF7F3FE0020286402B0B0BD00BF99
:10286000284602B0BDE8B040FFF7E8BED368401A82
:1028700023F49073D360536981B223F00103536151
:10288000202385F83E3000232B63D368284623F0AD
:102890001003D36002B0BDE8B040FFF7CDBE00BF6B
:1028A000286A30F8021B6FF35F215160286204E749
:1028B000002804BF0120704710B5044690F83D0081
:1028C00028B9002084F83C00204600F061F824205C
:1028D00084F83D002068D4E90212C36823F4005351
:1028E000C360036923F440531A430261D4E904230B
:1028F0001143C268194341F20C639A431143C1600A
:102900004169A26921F44071114343F60002C4F207
:1029100001029042416103D0FEF71AFC02E000BFC1
:10292000FEF72AFC6268192148439100B0FBF1F0E0
:1029300048F21F51C5F2EB11A0FB01235A094FF6D3
:102940009C73C0F6FF7302FB0300322303EB0010FD
:10295000A0FB0101F02303EA5113206803EB0212EC
:10296000C1F3431111448160016921F49041016177
:10297000416921F02A014161C16841F40051C160FF
:1029800000202021206484F83D1084F83E1010BD02
:1029900070B586B040F60004C4F20104006804F586
:1029A000405100268842049602D006B070BD00BF98
:1029B00041F21800C4F20200016802AD41F4804106
:1029C0000160016801F4804101910199016841F0C1
:1029D000040101600068294600F00400019001989C
:1029E0004FF40070029002200390032005902046CF
:1029F000FEF706F94FF48060CDE90206204629462D
:102A00000496FEF7FDF8252001210022FEF784FA46
:102A10002520FEF76DFA06B070BD0000034690F861
:102A20003E0020280AD100294FF0010018BF002ADB
:102A300000D1704793F83C00012801D10220704773
:102A400000201863996222219A85DA85186483F838
:102A50003E10196883F83C00CA6842F48072CA606C
:102A60004A6942F001024A61CA6842F02002CA6023
:102A70007047000070B50446006843F60001C4F2D8
:102A80000101884251D140F23000C2F200000078CA
:102A900020283FD140F21805C2F20005E86801285D
:102AA00017DBAA68012030212A4412F8013C2E6964
:102AB000303B03FB006300EB80002B6102F8011C3C
:102AC000D5E902324000013AEA60A3F10102AA60AE
:102AD000EADCB5F9101000260020AE60EE6000F0D0
:102AE00011FCB5F91010002000F02EFCB5F9101003
:102AF000002000F04BFCB5F91010002000F068FC3D
:102B000040F20C10C2F2000000210022FDF776FF17
:102B10002E610AE040F21801C2F200018A68531CDB
:102B20008B608854C8680130C86040F23001C2F23E
:102B3000000120460122BDE87040FFF76FBF000092
:102B40002DE9F041044690F83D0020280ED10D46B5
:102B500000294FF0010000F08E801646002A08BFC1
:102B6000BDE8F08194F83C00012803D10220BDE8C3
:102B7000F08100BF012084F83C0000202064212067
:102B8000984684F83D00FEF745F9A684E684A168DE
:102B90000646B1F5805F03D12069002800F0A080CF
:102BA0002F460025002084F83C00E08CE0B118F1AD
:102BB00001001BD0B8F1000F60D120680BE000BF0E
:102BC00035F8021B00276FF35F214160E18C01396A
:102BD000E184E18C51B3016809066DD5002FEFD077
:102BE00017F8011BF1E700BF20681FE0206802E032
:102BF0000168090609D40168090606D401680906B6
:102C00005CBF01685FEA0161F2D51FB117F8011BD3
:102C100005E000BF35F8021B00276FF35F2141601C
:102C2000E18C0139E184E18C0029E4D10168490695
:102C30001DD4B8F1000F3FD018F101010ED1016889
:102C4000490614D4016849065CBF01685FEA416126
:102C50000DD401684906F2D509E000BFFEF7DAF8A5
:102C6000811B2068414527D800684006F6D5202002
:102C700084F83D000020BDE8F08100BF206800BF5F
:102C80000168090606D4FEF7C5F8811B2068414596
:102C9000F6D911E017B117F8011B04E035F8021B53
:102CA00000276FF35F214160E18C0139E184E18C01
:102CB0000029E5D1BAE700BFC16821F4D071C16035
:102CC000416921F001014161202084F83D0084F830
:102CD0003E00002084F83C000320BDE8F08100BFE6
:102CE00000275FE770470000FEE700002DE9F04F86
:102CF00085B041F21800C4F20200016841F20005FB
:102D000041F0100101600168C4F2010501F01001F9
:102D1000019101990168002241F0200101600168E0
:102D200046F2EF3601F020010191019901684FF060
:102D3000000B41F004010160016801F00401019100
:102D40000199016841F008010160006846F2EF3125
:102D500000F00800019001982846FEF755F8A5F507
:102D6000006420464FF4807101224FF480784FF0C8
:102D70000109FEF749F8CDE9016901AE02274FF0DC
:102D8000030A284631460397CDF810A0FDF738FF17
:102D90001020CDE9010B284631460397FDF730FF9F
:102DA0004FF47040CDE9010BA5F580603146CDF8B8
:102DB0000CB0FDF725FF01A880E8000B2046314646
:102DC000CDF810A0FDF71CFF05B0BDE8F08F0000A6
:102DD00070B594B040F2141040F200450021C2F2E8
:102DE000000040F2E733C4F200050E91CDE90C116A
:102DF0000991CDE90711CDE90511CDE90311CDE91F
:102E0000011140F29F52C0E9021301618021C0E923
:102E100000528161FEF702FC002818BFFDF7E8FDB3
:102E20004FF480500B9040F21410C2F200000BA936
:102E3000FEF754FD002818BFFDF7DAFD40F214102C
:102E4000C2F20000FFF7C8FA002818BFFDF7D0FD56
:102E500040F214100024C2F2000008A9CDE9084491
:102E6000FEF792FB002818BFFDF7C2FD6020CDE9F8
:102E7000010440F21410C2F2000001A900220394E0
:102E80000594FFF77FF9002818BFFDF7B1FD40F268
:102E90001410C2F2000001A90422FFF773F9002800
:102EA00018BFFDF7A5FD4FF47A70029040F21410A0
:102EB000C2F2000001A90822FFF764F9002818BF38
:102EC000FDF796FD40F21414C2F2000401A9204659
:102ED0000C22FFF757F9002818BFFDF789FD20469F
:102EE00000210026FFF710FB20460421FFF70CFB12
:102EF00020460821FFF708FB20460C21FFF704FBC2
:102F0000206840F60001C4F2000188421396CDE922
:102F10001166109626D0A8423DD141F21800C4F2A5
:102F200002000168022441F00401016001680326E7
:102F300001F004010F910F99016841F0080101604F
:102F4000006810A900F008000F900F98C0201090A2
:102F500005F5823011941396FDF752FECDE9106409
:102F600012E000BF41F21800C4F20200016841F013
:102F700008010160006800F008000F900F984FF4FE
:102F800070701090022011900320139005F584308A
:102F900010A9FDF735FE14B070BD000070B594B0F7
:102FA00040F25C1040F600050021C2F2000040F241
:102FB000CF73C4F200050E91CDE90C110991CDE952
:102FC0000711CDE90511CDE90311CDE90111012268
:102FD000C0E9021301618021C0E900528161FEF75E
:102FE0001DFB002818BFFDF703FD4FF480500B9028
:102FF00040F25C10C2F200000BA9FEF76FFC002843
:1030000018BFFDF7F5FC40F25C10C2F20000FFF7BC
:10301000E3F9002818BFFDF7EBFC40F25C10002438
:10302000C2F2000008A9CDE90844FEF7ADFA002875
:1030300018BFFDF7DDFC602001904FF47A70CDE9F8
:10304000020440F25C10C2F2000001A900220594C3
:10305000FFF798F8002818BFFDF7CAFC40F25C1093
:10306000C2F2000001A90422FFF78CF8002818BF63
:10307000FDF7BEFC40F25C10C2F2000001A908227C
:10308000FFF780F8002818BFFDF7B2FC40F25C148F
:10309000C2F2000401A920460C22FFF773F80028B1
:1030A00018BFFDF7A5FC204600210026FFF72CFAEB
:1030B00020460421FFF728FA20460821FFF724FACA
:1030C00020460C21FFF720FA2068CDE91266A842BD
:1030D000119610962AD040F20041C4F200018842B5
:1030E0003DD141F21800C4F202000168022441F00F
:1030F000040101600168032601F004010F910F999A
:10310000016841F008010160006810A900F00800A2
:103110000F900F98C020109005F5803011941396F1
:10312000FDF76EFDCDE9106412E000BF41F218001A
:10313000C4F20200016841F008010160006800F07B
:1031400008000F900F984FF47070109002201190AB
:103150000320139005F5823010A9FDF751FD14B03E
:1031600070BD000010B58AB040F2A4100021C2F278
:10317000000040F600424CF24F340991CDE90711AE
:10318000CDE90411CDE90211CDE90011C4F200022C
:103190004723C0E9021401618021C0E90023816155
:1031A000FEF73CFA002818BFFDF722FC4FF48050D0
:1031B000069040F2A410C2F2000006A9FEF78EFBB2
:1031C000002818BFFDF714FC40F2A410C2F2000062
:1031D000FEF7DAFD002818BFFDF70AFC40F2A41044
:1031E0000024C2F2000004A9CDE90444FEF7CCF9A2
:1031F000002818BFFDF7FCFB022000900120CDE95C
:103200000104039040F2A410C2F2000069460022BB
:10321000FEF7F6FC002818BFFDF7EAFB40F2A41009
:10322000C2F2000069460422FEF7EAFC002818BF3B
:10323000FDF7DEFB40F2A410C2F20000694608224E
:10324000FEF7DEFC002818BFFDF7D2FB40F2A41009
:10325000C2F2000069460C22FEF7D2FC002818BF1B
:10326000FDF7C6FB0AB010BD80B582B040F2EC108D
:1032700041F200020021C2F20000C4F20002472322
:103280004FF6FF7CCDE90011C0E90023C0E9021C24
:103290008161FEF7C3F9002818BFFDF7A9FB40F2D2
:1032A000EC10C2F200006946FEF76EF9002818BF64
:1032B000FDF79EFB02B080BD10B540F23004C2F2B3
:1032C000000443F60001C4F20101204640F8041F47
:1032D0004FF4E13100220C23C0E90112C0E90322BE
:1032E000C0E90532C261FFF7E3FA002818BFFDF715
:1032F0007FFB201D21460122BDE81040FFF78EBB59
:10330000FEE7000070B50246B0FA80F0440981EA99
:10331000E13041F20005A0EBE130C4F2010586B2D4
:1033200028460221002A18BF0122FDF76DFD28461C
:1033300001212246FDF768FD40F25C10C2F2000058
:103340000068466370BD000070B50246B0FA80F0B8
:10335000440981EAE13041F20005A0EBE130C4F21A
:10336000010586B228460421002A18BF0122FDF774
:103370004BFD284608212246FDF746FD40F25C1031
:10338000C2F200000068866370BD000070B502469E
:10339000B0FA80F0440981EAE13041F20005A0EB87
:1033A000E130C4F2010586B228464021002A18BF48
:1033B0000122FDF729FD284680212246FDF724FD44
:1033C00040F25C10C2F200000068C66370BD0000ED
:1033D00070B50246B0FA80F0440981EAE13041F26A
:1033E0000005A0EBE130C4F2010586B228464FF497
:1033F0008071002A18BF0122FDF706FD28464FF410
:1034000000712246FDF700FD40F25C10C2F20000A0
:103410000068066470BD0000FEE7000040F29800FE
:10342000C2F200000021C0E90311C0E90811C0E99F
:103430000D11C0E9121170472DE9F04340F27800F8
:10344000C2F2000081785A2964D1C178012323EAAD
:103450000102827623EAD1020579C276CA43D2B24A
:10346000D60923EA0502C27323EA5502427423EA0D
:103470009502827323EAD50290F80190027423EA40
:10348000151723EA551223EA9514ED43EDB223EA0A
:10349000111C23EA511823EA911EED09B9F1730FAB
:1034A00080F814C080F8128080F815E0C6740776A2
:1034B00082754476C57517D0B9F1410F18BFBDE8C4
:1034C000F083A8EB0601C1EBC1110173ACEB0E0157
:1034D000C1EBC1114173511BC1EBC1118172391B89
:1034E000C1EBC11115E000BF23EA510223EA9101AB
:1034F00041774179C37902778279077A83F0800333
:1035000081F08001037387F07F03817282F07F0175
:103510004373C172BDE8F0832DE9F04141F2000828
:1035200004460027C4F20108002506E0C5F3460062
:103530000137082F40EAC6153CD004F0010240468E
:103540004FF48041FDF760FC40464FF400510122EA
:10355000FDF75AFCBC2000BF00BF00BF00BF18B180
:1035600000BF0438F8E700BF40464FF40051002286
:10357000FDF74AFC40461021FDF740FC0646BC2002
:1035800000BF00BF00BF18B100BF0438F8E700BF9C
:10359000E0B2440840464FF400510122FDF734FCEC
:1035A000BC2000BF00BF00BF002800BFBED000BFCE
:1035B0000438F7E7E8B2BDE8F0810000B0B541F2A9
:1035C0000004C4F20104204620210022FDF71CFC67
:1035D0000120FFF7A1FF40F27805C2F20005287034
:1035E0004220FFF799FF6870FF20FFF795FFA87052
:1035F000FF20FFF791FFE870FF20FFF78DFF287194
:10360000FF20FFF789FF6871FF20FFF785FFA87192
:10361000FF20FFF781FFE871FF20FFF77DFF287291
:10362000204620210122FDF7EFFBBDE8B040FFF767
:1036300003BF000070470000704700002DE9F04311
:1036400081B040F21000C2F2000006683046FCF77C
:103650002EFF48F20008C4F2660800224346FCF739
:103660009CFE02460B46FCF77FFD40F20009C3F6C4
:10367000E07900224B46FCF777FD0027C4F23407BF
:1036800000223B46FCF789FE44F20004C4F28F049A
:1036900000222346FCF70FFEFCF71AFF0546C6F191
:1036A000B400FCF704FF00224346FCF776FE024616
:1036B0000B46FCF759FD00224B46FCF755FD002256
:1036C0003B46FCF76AFE00222346FCF7F4FDFCF7BC
:1036D000FFFE40F21411C2F200010968CD630864D4
:1036E00001B0BDE8F08300002DE9F04381B040F265
:1036F000F800C2F2000006683046FCF7D8FE48F237
:103700000008C4F2660800224346FCF746FE024663
:103710000B46FCF729FD40F20009C3F6E0790022D0
:103720004B46FCF721FD0027C4F2340700223B463C
:10373000FCF733FE44F20004C4F28F040022234657
:10374000FCF7B9FDFCF7C4FE0546C6F1B400FCF772
:10375000AEFE00224346FCF720FE02460B46FCF775
:1037600003FD00224B46FCF7FFFC00223B46FCF722
:1037700014FE00222346FCF79EFDFCF7A9FE40F252
:103780001411C2F2000109684D63886301B0BDE8FD
:10379000F083000040F2E800C2F200008168C268D5
:1037A000016042607047000040F21400C2F2000065
:1037B000008840F2E801C2F2000108814881888156
:1037C000C8817047FDF72CBB7047000040F2A41081
:1037D000C2F20000FEF71CBC406A0021C185C18412
:1037E000FEF72CBF81B090F83E10222921D18368CA
:1037F0000246B3F5805F09D152F8281F52F8183CF1
:10380000002B3FD003685B680AE000BF52F8281F16
:1038100013B90369002BF5D003685B6803F07F03DD
:103820000B70116801311160C18D01390A04C18525
:1038300002D001B0704700BF0168CA6822F02002C0
:10384000CA60CA6822F48072CA604A6922F0010222
:103850004A61202280F83E20026B012A1AD1002200
:103860000263CB6823F01003CB600B68DB0605D541
:1038700000920A680092496800910099818D01B018
:10388000FEF7DABE026852686FF35F2221F8022B5E
:103890008162C9E701B0FFF7EDB8000040F23400E3
:1038A000C2F20000FEF7CCBEFEE7000040F2980036
:1038B0004CF6CD414CF6CD42C2F20000C3F6CC51DD
:1038C000C3F64C620023C0E90012C0E90213C0E94C
:1038D0000431C0E90621C0E90833C0E90A12C0E991
:1038E0000C13C0E90E31C0E91021C0E91233704752
:1038F00080B582B0019040F23000C2F20000043086
:1039000001A901224FF47A73FFF71AF9019802B066
:1039100080BD000090B0FDF791FA092000240690C8
:103920004FF480300225CDE90704CDE90D504FF466
:10393000E01001210F9006A80B94CDE909440A91EB
:103940000C91FDF72DFC28B1EFF3108072B600BF8B
:10395000FEE700BF0F20CDE901054FF48060CDE9FF
:10396000040401A802210394FDF712FB20B1EFF338
:10397000108072B6FEE700BFFFF7B8F9FFF79CFCB6
:10398000FFF70CFBFFF724FAFFF7ECFBFFF76CFCEB
:1039900040F2A414C2F200042046FDF75BFF20466B
:1039A0000021FEF787FA20460421FEF783FA20461D
:1039B0000821FEF77FFA20460C21FEF77BFAFFF77D
:1039C00075FF0CA000F034F8FFF7F8FDFCF7DCFF02
:1039D000FFF7EAFEFFF7DEFEFCF78EFEFCF760FE67
:1039E000FFF782FEFCF734FEFFF728FE0A20FDF702
:1039F000F3F8E9E7696E70757420666F726D617433
:103A0000203A20646174612B5B73706163655D00B3
:103A100002E008C8121F08C1002AFAD17047704797
:103A2000002001E001C1121F002AFBD170470000F5
:103A300010B5044601E0FFF75BFF14F8010B0449E1
:103A40000028F8D1BDE810400A20FFF751BF000060
:103A50000000002001020000000000000000010240
:103A60000304060708090000000001020304020322
:103A70000405060708090A0B0C0D0E0F10100000B4
:103A8000A03A00080000002030000000103A0008B2
:103A9000D03A00083000002018060000203A000844
:103AA0000000000001000000100000000024F400ED
:103AB000B4000000E8030000303030303030000047
:103AC00000000000000000000000000000000000F6
:0400000508000131BD
:00000001FF
