:020000040800F2
:10000000400600204501000865330008E52C000883
:100010004D320008D10600080D370008000000002E
:10002000000000000000000000000000853500080E
:10003000E9090008000000008135000829360008A1
:100040005F0100085F0100085F0100085F01000810
:100050005F0100085F0100085F0100085F01000800
:100060005F0100085F0100085F0100085F010008F0
:100070005F0100085F0100085F0100085F010008E0
:100080005F0100085F0100085F0100085F010008D0
:100090005F0100085F0100085F0100085F010008C0
:1000A0005F0100085F0100085F0100085F010008B0
:1000B0005F0100085F0100085F0100085F010008A0
:1000C0005F0100085F0100085F0100085F01000890
:1000D0005F010008013700085F0100085F010008A8
:1000E0005F0100085F0100085F0100085F01000870
:1000F0005F0100085F0100085F0100085F01000860
:100100005F0100085F010008313600085F01000848
:100110005F0100085F0100085F0100085F0100083F
:100120005F0100085F0100085F0100085F0100082F
:10013000DFF80CD000F090FA00480047793700084B
:10014000400600200648804706480047FEE7FEE7D5
:10015000FEE7FEE7FEE7FEE7FEE7FEE7FEE7FEE777
:100160002D360008310100082DE9FE4F804681EA56
:100170000300C00F0C46009021F0004123F0004521
:10018000B8EB0200A94105D24046214690461C46E4
:100190000B46024623F00040104347D0270DC7F31B
:1001A0000A00C3F30A510290401A019040286BDA0A
:1001B000C3F3130040F4801B0098924620B1002343
:1001C000D2EB030A63EB0B0B01985946C0F14002D6
:1001D000504600F0B2F906460D4650465946019A7F
:1001E00000F0CAF910EB08006141002487EA1152BF
:1001F00084EAE7731A4340D0009A62B3019A012A55
:100200004FEA075215DC001B61EB02014FF0004280
:1002100002EA0752CDE90042001C41F58011324646
:100220002B4600F0CAF903B0BDE8F08F40462146E6
:10023000F9E7001B61EB0201001C41F58013001877
:100240005B412018A2F5001747EB030140EAD57087
:10025000B6196D4111E06D084FEA360645EAC075E2
:100260004FEA0752001B61EB0201001C41F58011AF
:1002700049084FEA30000019514132462B4603B07D
:10028000BDE8F04F00F08AB9009801224000002339
:10029000D0EB020263EBE073009821464FEAE07472
:1002A000B8EB000061EB0401E9E783F000435BE792
:1002B00081F0004158E72DE9FE4F81EA030404F084
:1002C000004421F0004100944FF0000B23F0004364
:1002D00050EA01045ED052EA03045BD0C3F30A542F
:1002E000C1F30A552C44A4F2F3340194A0FB025448
:1002F000C1F3130141F48011C3F3130343F48013DA
:1003000001FB024400FB034E840A970A44EA81542D
:1003100047EA8357A4FB076802958D0A05FB07850A
:100320004FEA932C04FB0C542705029D4FEA065814
:1003300047EA1637B5EB08056EEB070C870E920EF1
:1003400047EA811742EA8312A7FB0201B6EB0B01D1
:1003500064EB00042B0D43EA0C335E1844EB1C5095
:10036000DA465146E7FB0201C5F313044FEA0B33AB
:1003700043EA14534FEA0432019C43EA0603A4F112
:100380000C040294009CCDE900B400F016F903B00F
:10039000BDE8F08F00200146F9E72DE9F04D81EA34
:1003A000030404F0004B21F0004514464FF0000A0E
:1003B00023F0004150EA050220D054EA01021DD08A
:1003C000C5F30A570246C5F31303C1F31300C1F383
:1003D0000A5640F4801543F48013A7EB0608101B5F
:1003E000D64608F2FD3873EB050002D308F1010888
:1003F00001E092185B41B8F1000F03DA00200146DA
:10040000BDE8F08D00204FF48011064684460EE0D2
:10041000171B73EB050705D3121B63EB050306439C
:100420004CEA010C49084FEA300092185B4150EA4F
:100430000107EDD152EA030012D082EA040083EAF8
:100440000501084305D0101BAB4106D20122002351
:1004500006E000224FF0004302E06FF0010253106B
:100460001AEB06004CEB085110EB0A0041EB0B01B4
:10047000BDE8F04D00F092B830B5041E71F10004F3
:1004800004DB4FF00044404264EB0101141E73F1A1
:10049000000405DB1C464FF00043524263EB0403AB
:1004A000101A8B4101D2012030BD002030BD0EB5A5
:1004B000C10F80EAE0700844CA07002140F23343CC
:1004C0008DE80E000A460B4600F077F803B000BD39
:1004D00070B5C1F30A5201F000450024C1F31301C5
:1004E00040F2FF3341F480119A4201DA002070BDDE
:1004F00040F233439A42A2F2334203DC524200F00C
:100500002BF800E090402C43F1D0404270BD30B554
:100510000B46014600202022012409E021FA02F5C1
:100520009D4205D303FA02F5491B04FA02F528445B
:10053000151EA2F10102F1DC30BD202A04DB203AB5
:1005400000FA02F1002070479140C2F1200320FA26
:1005500003F3194390407047202A04DB203A21FA24
:1005600002F00021704721FA02F3D040C2F12002CC
:100570009140084319467047202A06DBCB17203AE2
:1005800041FA02F043EAE07306E041FA02F3D04098
:10059000C2F12002914008431946704710B5141E5D
:1005A00073F1000408DA401C41F1000192185B412C
:1005B0001A4301D120F0010010BD2DE9F04D924603
:1005C0009B4611B1B1FA81F202E0B0FA80F220321A
:1005D0009046FFF7B2FF04460F4640EA0A0041EAA0
:1005E0000B0153465A46084313D0114653EA010003
:1005F00019D0C8F140025046FFF7AEFF05460E463F
:10060000504659464246FFF798FF084305D001205F
:1006100004E020463946BDE8F08D0020054346EA57
:10062000E0762C4337430A986305E40AA0EB080000
:100630000022FD0A44EA47540A3002D50020014650
:10064000E9E7010510196941DDE90845001969412B
:10065000BDE8F04DA2E70000064C074D06E0E0685B
:1006600040F0010394E8070098471034AC42F6D3F9
:10067000FFF762FDAC3A0008CC3A000840F279007E
:10068000C2F200004279C37940F2F000012AC2F2BE
:10069000000008BF002B09D00168012B08BF002A09
:1006A0000AD0B4290CDDB4210160704701680A3911
:1006B0000160B42904DDF6E70A310160B429F2DCF7
:1006C000B1F1FF3FC8BF70470021016070470000D3
:1006D000FEE70000B0B540F21000C2F20000016871
:1006E000A4A003F0E3F840F27904C2F20004E07839
:1006F000217950EA010213D10020002102F0A8FD67
:100700000020002102F0C6FD0020002102F0E4FDDF
:100710000020002102F002FE02F026FEE07821799E
:1007200040F2E0050028C2F2000508BF7F2957D03B
:10073000002808BF81296DD07F2808BF002900F05C
:100740008480812808BF002900F09A80812808BF92
:100750007F2900F0B080812808BF812900F0C48083
:100760007F2808BF7F2900F0D8807F2808BF812913
:1007700000F0EC806178A078812908BF002815D1AD
:10078000B5F90010002002F063FDB5F90210012058
:1007900002F080FDB5F90410012002F09DFDB5F9CD
:1007A0000610012002F0BAFD6178A0787F290CBF05
:1007B0000028B0BDB5F90010012002F049FDB5F9DF
:1007C0000210002002F066FDB5F90410002002F0CE
:1007D00083FDB5F906100020BDE8B04002F09EBDD3
:1007E000B5F90010012002F033FDB5F90210002028
:1007F00002F050FDB5F90410012002F06DFDB5F9CD
:100800000610012002F08AFDE0782179002808BF57
:10081000812991D1B5F90010002002F019FDB5F938
:100820000210012002F036FDB5F90410002002F09C
:1008300053FDB5F90610002002F070FDE078217933
:100840007F2808BF00297FF47CAFB5F90010012094
:1008500002F0FEFCB5F90210012002F01BFDB5F913
:100860000410012002F038FDB5F90610002002F056
:1008700055FDE0782179812808BF00297FF466AF13
:10088000B5F90010002002F0E3FCB5F902100020D9
:1008900002F000FDB5F90410002002F01DFDB5F9CD
:1008A0000610012002F03AFDE0782179812808BF86
:1008B0007F297FF450AF0120002102F0C9FCB5F977
:1008C0000210002002F0E6FC0120002102F004FDED
:1008D000B5F90610012002F021FDE0782179812888
:1008E00008BF81297FF43CAFB5F90010002002F069
:1008F000AFFC0120002102F0CDFCB5F9041000206E
:1009000002F0EAFC0120002102F008FDE0782179E4
:100910007F2808BF7F297FF428AFB5F90010012098
:1009200002F096FC0120002102F0B4FCB5F904109D
:10093000012002F0D1FC0120002102F0EFFCE07860
:1009400021797F2808BF81297FF414AF012000217D
:1009500002F07EFCB5F90210012002F09BFC0120A0
:10096000002102F0B9FCB5F90610002002F0D6FC17
:1009700000E700BF5F73706565645F203A202564FF
:100980000A00000040F27900C2F20000C17B007C46
:10099000012908BF002805D0002908BF012813D06D
:1009A000704700BF40F21000C2F20000006840F241
:1009B0009E718842B8BF014601F1320040F2100139
:1009C000C2F200010860704740F21000C2F200005D
:1009D00000683228D8BF3220323840F21001C2F20B
:1009E000000108607047000070470000EFF31080BE
:1009F00072B600BFFEE70000F0B581B00446914238
:100A000088BF0A4602EB82008000FFF750FD4EF6D9
:100A1000A70242F2FF13C2F64862C4F20903FFF7CD
:100A20004AFC0023C4F254030022FFF744FC4AF2BC
:100A30000003C4F274030022FFF7AFFC44F2000786
:100A4000C4F28F0700223B4605460E46FFF714FD11
:100A500000281CBF374628463946FFF739FD20805D
:100A600001B0F0BD014690F82100022816D10868B7
:100A7000D1E90FC3026822F00E020260026822F080
:100A800001020260012000FA03F2CCF8042081F890
:100A900021000020002281F8202070470420886374
:100AA0000120002281F820207047000080B590F8D6
:100AB0002110022928D1026840F2040C1368C4F204
:100AC000020C23F00E03136013680CF17C018A42C0
:100AD00023F0010111601BD940F20841C4F2020168
:100AE0008A4249D040F21C41C4F202018A4247D0F6
:100AF00040F23041C4F202018A4245D14FF4807382
:100B0000CCF800345DE000BF04218163012080BD8A
:100B10004321C4F202018A420EDD6B21C4F20201BC
:100B20008A421BDC4421C4F202018A423CD0582193
:100B3000C4F202018A4233E00821C4F202018A426F
:100B400036D01C21C4F202018A4237D03021C4F2CF
:100B500002018A4224D14FF4807230E06C21C4F249
:100B600002018A4226D08021C4F202018A4217D1B2
:100B70004FF0807223E000BF0123CCF8003420E066
:100B80001023CCF800341CE00CF588614FF480335E
:100B90008A4208BF4FF48053CCF8003411E000BF04
:100BA0004FF480320BE000BF4FF4805207E000BFEB
:100BB000012204E04FF4801201E000BF1022CCF8C3
:100BC0000020416B4FF48072028401B188470020FD
:100BD00080BD0000B0B5044600F01EF9054640F2A5
:100BE0000400C2F200000078611C18BF044400BF7A
:100BF00000F012F9401BA042FAD3B0BD2DE9F04F2E
:100C000083B041F60043C4F201030E680622984205
:100C1000019008BF0522002E009200F0ED8001989F
:100C200040F20C45A0F18043A3F584334FEAB3278B
:100C300040F200404FF6FF73C4F20105C4F2010018
:100C4000009A4FF0000E4FF0010CC1F210034FF06C
:100C5000000A4FF0000B4FF00F08052F38BF3A463F
:100C6000009208E00E680AF1010A36FA0AF20EF163
:100C7000040E00F0C1800CFA0AF916EA090FF1D04F
:100C80004E689E4212DC122E56D8DFE806F0350B75
:100C90004549555555555555555555555555554D28
:100CA000510000BFD1F80CB046E000BF4FF6FF7214
:100CB000C1F2210296420FDC0022C1F211029642DB
:100CC0001AD00022C1F21202964215D00022C1F2BF
:100CD0002102964210D02FE00022C1F22202964259
:100CE0000AD00022C1F23102964205D00022C1F2A0
:100CF0003202964220D100BF8E684EB1012E019A79
:100D000014BFC2F81490C2F810904FF0080B13E013
:100D10004FF0040B10E000BFCF6807F1080B0BE0A9
:100D20004FF0000B08E000BFCF6807F1040B03E0B1
:100D3000CF6807F10C0B00BF7446BAF1080F28BF4B
:100D4000203C019F28BF04373E6808FA04F226EAD7
:100D500002020BFA04F632433A60CA79D2067FF5F2
:100D600081AF41F21807C4F202073A684FF6084C07
:100D700042F001023A603A68CFF6FF7C02F00102CD
:100D80000292029A2AF00302024452F80C700EF00A
:100D90000C0608FA06F4A743009C04FA06F637434B
:100DA00042F80C70D1F804C05FEACC32026854BF3C
:100DB00022EA090642EA09065FEA8C3206604268C6
:100DC00054BF22EA090642EA09065FEACC224660DD
:100DD000826854BF22EA090642EA09065FEA8C22C9
:100DE00086604FF0010C2A6854BF22EA090642EAE5
:100DF00009062E6036E700BF03B0BDE8F08F0000A3
:100E00008068084018BF012070470000002A08BF12
:100E1000090401617047000040F23C20C2F200006A
:100E20000068704740F2040040F23C21C2F200002A
:100E3000C2F2000100780A681044086070470000A0
:100E400080B542F20000C4F20200016841F01001D6
:100E50000160032000F08AF80F2000F005F800F090
:100E600027F8002080BD000070B540F20406C2F2F1
:100E7000000640F20C013278C2F200014FF47A739E
:100E80000968B3FBF2F20446B1FBF2F1084600F048
:100E90005FFB0F2C4FF0010508D838B94FF0FF3039
:100EA00021460022002500F035F87460284670BD08
:100EB00082B041F21800C4F202000168022241F03F
:100EC00001010160016801F001010191019941688E
:100ED00041F080514160406800F0805000900098DF
:100EE0000420C4F20100016862F31A61016002B0DB
:100EF00070470000002848BF704700F01F01012222
:100F000002FA01F14EF200124009CEF2000242F85C
:100F10002010704710B54EF60C5CCEF2000CDCF8D9
:100F20000030C3F3022E8EF00704042C28BF0424E3
:100F3000BEF103034FF0FF3E0EFA04F438BF002366
:100F4000A14399400EFA03F39A43114300F00F02B4
:100F5000043A624409010C3200F16043B0F1FF3FF2
:100F6000C8BF03F56442117010BD00004EF60C516D
:100F7000CEF200010A684FF6FF031A4060F30A221E
:100F800042F0806040F0FD70086070472DE9F0434A
:100F900081B0002800F0858042F20008C4F2020807
:100FA0000446D8F800000D4600F0070088420CD235
:100FB000D8F8000020F007002843C8F80000D8F84F
:100FC000000000F00700A8426BD1206841F204093C
:100FD0008107C4F2020917D5410705D5D9F80010D9
:100FE00041F4E061C9F80010010705D5D9F80010F7
:100FF00041F46051C9F80010D9F80010A26821F03E
:10100000F0011143C9F80010C00741D1D8F8000021
:1010100000F00700A8420CD9D8F8000020F0070023
:101020002843C8F80000D8F8000000F00700A842E4
:1010300037D12068410707D5D9F80010E26821F4BC
:10104000E0611143C9F80010000708D5D9F8000085
:10105000216920F4605040EAC100C9F80000D9F8C5
:10106000002002F00C00082841F20020C0F27A00B3
:1010700050D143F67E23C2F38341C0F60003595C8E
:10108000D2033BD440F60010C0F23D00484341E09B
:10109000606802280AD001282AD159F8041C890363
:1010A00008D4012001B0BDE8F08300BF59F8041C4A
:1010B0008901F6D5D9F8001021F003010843C9F8D9
:1010C0000000FFF7A9FE064641F28837D9F8000074
:1010D000616800F00C00B0EB810F97D0FFF79CFE29
:1010E000801BB842F2D9032001B0BDE8F08300BFF5
:1010F00059F8041C8907D4D5DCE700BFD9F80020D3
:1011000043F66423C2F34042C0F600039A5C4843AE
:10111000B0FBF2F0D9F8001043F66622C1F30311D8
:10112000C0F60002515C40F20C0220FA01F140F2DC
:101130000800C2F200000068C2F200021160FFF76E
:1011400093FE002001B0BDE8F083000040F20C00E7
:1011500041F20401C2F20000C4F202010068096811
:1011600043F67622C1F30221C0F60002515CC8406A
:101170007047000040F20C0041F20401C2F200008E
:10118000C4F202010068096843F67622C1F3C22165
:10119000C0F60002515CC840704700002DE9F041E4
:1011A00082B0002868D00446007841F20006C007EB
:1011B000C4F2020625D0706800F00C0004281BD091
:1011C000706800F00C00082802D17068C00313D4C6
:1011D0006068002800F06881B0F5A02F00F07C81E5
:1011E000B0F5803F00F07C81306820F480303060C2
:1011F000306820F4802076E13068800301D5606893
:10120000D0B32078800718D5706810F00C0F07D085
:10121000706800F00C0008286ED17068C0036BD4B1
:101220003068800702D52069012825D130686169BE
:1012300020F0F80040EAC1003060207800071FD499
:101240002078400732D4E56995B1706800F00C0051
:10125000082840F08F80012D0ED07068216A00F4BC
:1012600080328A4208D1616A00F47010884203D14A
:10127000002002B0BDE8F081012002B0BDE8F0819D
:10128000A069002862D00020C4F242200121C0F8E9
:101290008014FFF7C1FD0546706A800700F18C805D
:1012A000FFF7BAFD401B0228F6D92AE1F06910F0D9
:1012B000805808D1F06940F08050F061F06900F08A
:1012C00080500090009847F20007C4F20007386889
:1012D000C00529D4386840F480703860FFF79CFD61
:1012E000054600BF3868C0051ED4FFF795FD401BBA
:1012F0006428F7D905E100BF2069002840F200000A
:10130000C4F2422000F0828001210160FFF784FDD9
:10131000054600BF306880073FF588AFFFF77CFDCA
:10132000401B0228F6D9ECE0E068002800F080803D
:10133000052800F09780012800F09880306A20F09E
:1013400001003062306A20F0040092E00020C4F214
:1013500042200021C0F88014FFF75EFD054600BF63
:10136000706A80077FF56CAFFFF756FD401B0228BF
:10137000F6D9C6E00027C4F2422700203866FFF7FE
:101380004BFD022D05460BD13068800140F1BE8037
:10139000FFF742FD401B02284FF00300F4D968E735
:1013A000306880017FF564AFFFF736FD401B0228EF
:1013B0004FF00300F4D95CE740F20C00C2F20000E9
:1013C000006844F6D351C1F26201A0FB0101480A52
:1013D000019000BF00BF0198411E002801913FF419
:1013E0002FAF00BF0198411E002801913FF428AFA4
:1013F00000BF0198411E002801913FF421AF00BFBA
:101400000198411E00280191E4D119E700210160F3
:10141000FFF702FD054600BF306880077FF50DAF7E
:10142000FFF7FAFC401B02284FF00300F4D920E735
:10143000306A20F001003062306A20F0040030622F
:10144000FFF7EAFC054641F2883700BF306A8007A3
:1014500020D5FFF7E1FC401BB8424FF00300F5D95F
:1014600007E700BF306A40F004003062306A40F0A5
:1014700001003062FFF7D0FC054641F2883700BF1B
:10148000306A800706D4FFF7C7FC401BB842F7D983
:1014900037E000BFB8F1000F7FF4D5AEF06920F05F
:1014A0008050F061CFE600BF306820F480303060BB
:1014B000306820F480203060FFF7AEFC054600BFA6
:1014C000306880037FF59DAEFFF7A6FC401B6428C3
:1014D0004FF00300F4D9CCE6306840F4802030604F
:1014E000306840F480303060FFF796FC054600BF5E
:1014F000306880033FF585AEFFF78EFC401B642803
:10150000F6D9032002B0BDE8F08100BF206AB0F533
:10151000803F05D17168A26821F4003111437160E8
:101520007168626A21F474111043084370600120ED
:101530003866FFF771FC0446306880013FF598AECD
:10154000FFF76AFC001B02284FF00300F4D990E675
:10155000411E0020B0EB116F1CBF012070474EF2FE
:101560001002CEF2000251604EF62351CEF200017D
:10157000F0230B70072190601160704770470000E6
:101580007047000010B590F83C20012A4FF002028D
:101590003FD080F83D200268D2F804E0D2F808C0BD
:1015A0000C682EF07003234340F6FF34C4F20004AD
:1015B000A242536010DCB2F1804F1FD040F20043D2
:1015C000C4F200039A4219D040F60003C4F20003AB
:1015D0009A4213D017E000BF40F60043C4F2000364
:1015E0009A420BD043F20043C4F201039A4205D061
:1015F00042F60043C4F201039A4204D149682CF038
:101600008003194391600121002280F83D1080F889
:101610003C20104610BD0000002804BF0120704788
:1016200010B5044690F83D0028B9002084F83C002D
:10163000204600F085F8022084F83D00206840F63E
:10164000FF330268C4F2000343F2004C9842C4F234
:10165000010C21DCB0F1804F2CD040F20041C4F2EB
:101660000001884226D040F60001C4F20001884201
:1016700020D0984224DCB0F1804F2FD040F20041BE
:10168000C4F20001884229D040F60001C4F20001F2
:10169000884223D026E000BF40F60041C4F200019A
:1016A000884207D0604505D042F60041C4F20101EE
:1016B0008842DED1A16822F070020A439842DADD46
:1016C00040F60041C4F20001884207D0604505D0D1
:1016D00042F60041C4F20101884203D1216922F49B
:1016E00040720A43A36922F08001D4F804E0E26862
:1016F000194360450160C262C0F828E005D042F697
:101700000041C4F20101884201D1616901630121F4
:101710004161002084F8461084F83E1084F83F10A0
:1017200084F8401084F8411084F8421084F8431083
:1017300084F8441084F8451084F83D1010BD000072
:1017400010B586B000680021A0F18040A0F580604F
:101750004FEAB0200328059100F27780DFE800F01F
:101760000212226841F21C00C4F20200016841F03A
:1017700002010160006800F002000190019806B0CB
:1017800010BD00BF41F21C00C4F20200016841F02C
:1017900004010160006800F004000190019806B0A7
:1017A00010BD00BF41F21C00C4F20200016841F00C
:1017B00008010160016801F008010191019950F8E8
:1017C000041C41F0040140F8041C50F8040C02A968
:1017D00000F00400019001980F2002900020CDE954
:1017E000030040F60000C4F20100FFF707FA3220C0
:1017F00000210022FFF78EFB3220FFF77BFB40F237
:101800009C14C2F20004204600F022F82046002179
:1018100000F04EFB2046042100F04AFB2046082140
:1018200000F046FB20460C2100F042FB06B010BD44
:1018300041F21C00C4F20200016841F01001016095
:10184000006800F010000190019806B010BD000083
:1018500090F83D1001291CBF01207047022180F83B
:101860003D10006840F6FF32C168C4F200029042A9
:1018700041F00101C1600FDCB0F1804F1ED040F299
:101880000041C4F20001884218D040F60001C4F2C1
:101890000001884212D018E040F60041C4F2000175
:1018A00088420BD043F20041C4F20101884205D0C6
:1018B00042F60041C4F20101884206D1816801F07C
:1018C0000701062904BF00207047016841F00101AB
:1018D000016000207047000080B590F83C20012A8C
:1018E0004FF0020200F0BF8080F83D20D0F800C029
:1018F0004FF67772DCF8083023EA0202CCF80820B1
:101900000B683F2B1CDD5F2B20DD602B50D0B3F527
:10191000005F6DD0702B40F0A080D1E901E3C96871
:10192000DCF8082043EA0E0322F47F4243EA012157
:101930001143CCF80810DCF8081041F077018AE078
:101940001F2B29DC63B3102B2AD086E0402B63D0F9
:10195000502B40F08280D1F804E0C968DCF82030D8
:10196000DCF8202022F00102CCF82020DCF818203E
:1019700022F0F00242EA011123F00A0242EA0E02CA
:10198000CCF81810CCF82020DCF8081041F05701F2
:1019900021F020015FE000BF202B01D0302B5CD173
:1019A000DCF8081021F07001194341F0070152E002
:1019B000D1F804E0C968DCF8203023F01003CCF83B
:1019C0002030DCF81830DCF8202023F4704322F0BB
:1019D000A00243EA013142EA0E12CCF81810CCF80A
:1019E0002020DCF8081041F0670121F0100132E0FE
:1019F000D1E901E3C968DCF8082043EA0E0322F4C8
:101A00007F4243EA01211143CCF80810DCF80810AA
:101A100041F480411FE000BFD1F804E0C968DCF860
:101A20002030DCF8202022F00102CCF82020DCF865
:101A3000182022F0F00242EA011123F00A0242EAE1
:101A40000E02CCF81810CCF82020DCF8081041F079
:101A5000470121F03001CCF808100121002280F864
:101A60003D1080F83C20104680BD000010B540F6C7
:101A70000044C4F201040168A4F58032914201D00F
:101A800010BD00BF007F01380728F9D8DFE800F05B
:101A9000061C044604040472F2E700BF20464FF41B
:101AA0008051FFF7ADF9012840F0908040F2F4003A
:101AB000C2F200000121017040F22C20C2F20000AD
:101AC00001880131018010BD20464FF40051FFF71D
:101AD00097F901280CD140F22C22C2F2000240F208
:101AE000F4009388C2F2000001210171581C90801B
:101AF00020464FF40051FFF783F90028C0D140F28F
:101B0000F400C2F200000021017140F22C20C2F268
:101B10000000063001880131018010BD20464FF4DD
:101B20008041FFF76DF901280CD140F22C22C2F25E
:101B3000000240F2F4001389C2F200000121017298
:101B4000581C108120464FF48041FFF759F90028B6
:101B50007FF496AF40F2F400C2F20000002101725F
:101B600040F22C20C2F200000A30018801310180CD
:101B700010BD00BF20464FF40041FFF741F9012896
:101B80000CD140F22C22C2F2000240F2F400938900
:101B9000C2F2000001210173581C908120464FF4CD
:101BA0000041FFF72DF9002818BF10BD40F2F400E6
:101BB000C2F200000021017340F22C20C2F20000AA
:101BC0000E3001880131018010BD00BF20464FF466
:101BD0008051FFF715F900287FF452AF40F2F4006E
:101BE000C2F200000021017040F22C20C2F200007D
:101BF000023001880131018010BD0000F0B590F87D
:101C00003C30012B04BF0220F0BD082A28D0042A52
:101C100044D0002A62D10368D1E900C5D1F80CE0B4
:101C20001A6A40F6FF3722F001021A621A4652F889
:101C3000186F1C6AC4F20007BB4273DCB3F1804F1B
:101C400000F0828040F20047C4F20007BB427BD024
:101C500040F60007C4F20007BB4275D08EE000BF1B
:101C60000768D1E900C5D1E902313A6A61F3071585
:101C700022F480723A623A4652F81C4F3E6A24F0CF
:101C8000F30445EA0401CCF3560565F349261160D7
:101C90003E62116821F00C01116066E00368D1E931
:101CA00000E6D1E902C11A6A360222F010021A6275
:101CB0001A4652F8184F4FF2FF071D6ABE4324F42C
:101CC000734461F30F3646EA040125F0A0040EF0D8
:101CD0000A0744EA071711601F621CE00368D1E994
:101CE00000E6D1E902C11A6A360222F480521A6271
:101CF0001A4652F81C4F4FF2FF071D6ABE4324F4E8
:101D0000734461F30F36CEF3520746EA040167F3DA
:101D10004D3511601D6211684FEA0C2321F44061BA
:101D2000116022E040F60047C4F20007BB420BD02E
:101D300043F20047C4F20107BB4205D042F6004718
:101D4000C4F20107BB4219D126F00306354324F043
:101D50000A070CF00A066EF3071537449D611F62EF
:101D60009F6927F00C079F618B6811681943116008
:101D7000002180F83C100846F0BD00BF46F0010588
:101D8000E5E70000002804BF0120704710B50446B5
:101D900090F83D0028B9002084F83C00204600F06F
:101DA00085F8022084F83D00206840F6FF33026881
:101DB000C4F2000343F2004C9842C4F2010C21DC4F
:101DC000B0F1804F2CD040F20041C4F200018842B3
:101DD00026D040F60001C4F20001884220D098428B
:101DE00024DCB0F1804F2FD040F20041C4F200015A
:101DF000884229D040F60001C4F20001884223D075
:101E000026E000BF40F60041C4F20001884207D03E
:101E1000604505D042F60041C4F201018842DED19E
:101E2000A16822F070020A439842DADD40F60041D0
:101E3000C4F20001884207D0604505D042F6004157
:101E4000C4F20101884203D1216922F440720A439D
:101E5000A36922F08001D4F804E0E26819436045E8
:101E60000160C262C0F828E005D042F60041C4F229
:101E70000101884201D161690163012141610020B2
:101E800084F8461084F83E1084F83F1084F840101F
:101E900084F8411084F8421084F8431084F8441008
:101EA00084F8451084F83D1010BD00007047000014
:101EB00061B1082916D0042919BF00F1410200F1CF
:101EC000450300F13F0200F143030FE090F83E208C
:101ED00090F84230012A4FF0010208BF012B1BD0BD
:101EE0001046704700F1400200F1440312781B785D
:101EF000012A4FF0010208BF012BF1D1022208296B
:101F000014D0042924D180F83F2080F843204FEAE0
:101F1000B102032A12D923E0022280F83E2080F881
:101F200042204FEAB102032A08D919E080F8402084
:101F300080F844204FEAB102032A11D8DFE802F00A
:101F40000212181E0068C26842F002021AE000BFC6
:101F500080F8412080F845204FEAB102032AEDD9EC
:101F6000006810E00068C26842F004020AE000BFA6
:101F70000068C26842F0080204E000BF0068C2685E
:101F800042F01002C26001F01F010122036A02FA4E
:101F900001F123EA01020262026A114340F6FF32B4
:101FA000C4F200029042016210DCB0F1804F1FD0F9
:101FB00040F20041C4F20001884219D040F600010D
:101FC000C4F20001884213D019E000BF40F600417E
:101FD000C4F2000188420BD043F20041C4F2010177
:101FE000884205D042F60041C4F20101884206D180
:101FF000816801F00701062904BF002070470168CD
:10200000002241F0010101601046704710B50168DF
:1020100004460869800744BFC8685FEA807039D405
:102020000869400744BFC8685FEA40703ED4086949
:10203000000744BFC8685FEA007045D40869C0065D
:1020400044BFC8685FEAC0604AD40869C0071CBFC3
:10205000C8685FEAC07051D10869000644BFC8680B
:102060005FEA006052D40869400644BFC8685FEA6E
:10207000406053D40869800646BFC8685FEA806044
:1020800010BD6FF0200220460A61BDE81040FFF746
:1020900077BA00BF6FF002000861012020778869DD
:1020A000800743D02046FFF7E1FC45E06FF00400D5
:1020B000086102202077886910F4407F40D02046D4
:1020C000FFF7D4FC42E000BF6FF008000861042075
:1020D0002077C86980073DD02046FFF7C7FC3FE066
:1020E0006FF01000086108202077C86910F4407F65
:1020F0003AD02046FFF7BAFC3CE000BF6FF0010089
:102100000861204600F06EFA2168A5E76FF08000B4
:1021100008612046FFF732FA2168A4E76FF040001B
:102120000861204600F082FA2168A3E7204600F00B
:1021300025F8204600F0E2F92168002020776FE7BB
:10214000204600F01BF8204600F0D8F92168002056
:1021500020776CE7204600F011F8204600F0CEF919
:1021600021680020207769E7204600F007F8204624
:1021700000F0C4F921680020207766E7704700006E
:102180002DE9F04190F83C30012B04BF0220BDE85E
:10219000F0814FEAB202032A00F21381DFE802F075
:1021A00002468ED8036843F200461A6AC4F201065A
:1021B00022F001021A621D6A1A465C6852F818EF92
:1021C0008F68D1F800C025F00205B34245EA070543
:1021D00005D042F60047C4F20107BB4205D1CF68E3
:1021E00025F00C0527F004073D43B34205D042F625
:1021F0000046C4F20106B34205D1D1E9056724F4D3
:10220000407434433C432EF0730747EA0C075C608C
:102210009F614F6809695F631D629F6947F0080706
:102220009F619F6927F004079F61C7E0036843F23D
:1022300000481A6AC4F2010822F010021A621D6AEC
:102240001A465C6852F818EF8F68D1F800C025F084
:102250002005434545EA071505D042F60047C4F27C
:102260000107BB4207D1CF686FF0400625F0C005DB
:1022700006EA07163543434505D042F60046C4F248
:102280000106B34207D1D1E9056724F4406444EA6A
:10229000860444EA87042EF4E64747EA0C275C608C
:1022A0009F614F6809699F631D629F6947F40067DA
:1022B0009F619F6927F480679F617EE0036843F216
:1022C00000481A6AC4F2010822F480721A621D6A78
:1022D0001A465C6852F81CCF8F68D1F800E025F4EC
:1022E0000075434545EA072505D042F60047C4F28C
:1022F0000107BB4208D1CF6840F2FF463F0225F4F8
:10230000406527EA06063543434505D042F60046B8
:10231000C4F20106B34207D1D1E9056724F4405461
:1023200044EA061444EA07142CF0730747EA0E0740
:102330005C60DF614F680969DF631D62DF6947F038
:102340000807DF61DF6927F00407DF6136E000BFBF
:10235000036843F200471A6AC4F2010722F480526C
:102360001A621A46D3F820C05D6852F81C4FD1F8A3
:1023700000E08E68BB4205D042F60047C4F2010778
:10238000BB4204D14F6925F4804545EA87152CF4FA
:10239000005747EA063724F4E64646EA0E265D6013
:1023A000DE614E6809691E641F62DF6947F40067D9
:1023B000DF61DF6927F48067DF6109021368194371
:1023C0001160002180F83C100846BDE8F081000053
:1023D000002804BF0120704710B5044690F83D0066
:1023E00028B9002084F83C00204600F085F802203F
:1023F00084F83D00206840F6FF330268C4F2000311
:1024000043F2004C9842C4F2010C21DCB0F1804F41
:102410002CD040F20041C4F20001884226D040F6A0
:102420000001C4F20001884220D0984224DCB0F1BF
:10243000804F2FD040F20041C4F20001884229D0E1
:1024400040F60001C4F20001884223D026E000BF1C
:1024500040F60041C4F20001884207D0604505D033
:1024600042F60041C4F201018842DED1A16822F0A7
:1024700070020A439842DADD40F60041C4F20001DE
:10248000884207D0604505D042F60041C4F2010100
:10249000884203D1216922F440720A43A36922F0E1
:1024A0008001D4F804E0E268194360450160C2622B
:1024B000C0F828E005D042F60041C4F2010188428C
:1024C00001D16169016301214161002084F8461056
:1024D00084F83E1084F83F1084F8401084F84110CE
:1024E00084F8421084F8431084F8441084F84510AE
:1024F00084F83D1010BD00007047000070470000D8
:1025000041B1082910D0042914BF00F1410200F1A3
:102510003F020BE090F83E20012A1CBF01207047CB
:10252000022280F83E2013E000F140021278012AD6
:102530001CBF012070470222082907D0042914BFBC
:1025400080F8412080F83F2002E000BF80F8402062
:10255000006801F01F010122036A02FA01F123EA77
:1025600001020262026A114340F6FF32C4F2000225
:10257000904201620EDCB0F1804F25D040F2004164
:10258000C4F2000188421FD040F60001C4F20001ED
:1025900018E000BF40F60041C4F20001884213D0A9
:1025A00043F20042C4F2010242F600419042C4F2FA
:1025B000010101D088420ED1436C904243F40043A4
:1025C000436401D0884206D1816801F007010629E1
:1025D00004BF00207047016841F001010160002044
:1025E00070470000B0B540F22C25C2F2000540F261
:1025F000041429886A88C2F200042046FEF7FCF918
:10260000A988EA88A01CFEF7F7F929896A89201DA4
:10261000FEF7F2F9A989EA89A01DFEF7EDF900207D
:10262000C5E90000C5E90200B0BD00007047000028
:102630007047000070470000B0B582B002680546E0
:102640001068D368546900F02F01202903F020019D
:1026500006D129B1284602B0BDE8B04000F0F4BF71
:102660005FEA007C1EBF04F0010E03F4907414EBCB
:102670000E0455D1296B012905D110F0100118BFA6
:1026800013F0100136D1010622D513F080011FD0BE
:1026900095F83D00212841D1A868B0F5805F03D1AD
:1026A0002869002800F0F680286A411C2962007819
:1026B0005060E88C01380104E8842FD1D06820F004
:1026C0008000D060D06840F04000D06002B0B0BD63
:1026D000400623D513F0400020D0D068202120F000
:1026E0004000D060284685F83D1002B0BDE8B040FB
:1026F00000F0F6BA00200190106801905068019037
:1027000001985069400613D4A88DE98DEB8D002BFC
:102710001CBF401A5FEA004140F0A48002B0B0BD87
:10272000C40718BF13F480732CD1430730D436E0AC
:10273000A86B01684B689CB2002CEFD0A98D8C422D
:10274000ECD2EB858369202B17D0D16821F48071FE
:10275000D160516921F001015161516921F04001BD
:102760005161202185F83E1000212963D16821F0B4
:102770001001D160FEF776F9A98DE88D081A81B2B3
:10278000284682E02B6C43F001032B64430706D5F7
:10279000BEF1000F03D02B6C43F002032B648307C0
:1027A00006D5BEF1000F03D02B6C43F004032B645D
:1027B000BCF1000F06D551EA0E0303D02B6C43F099
:1027C00008032B642B6C002BA8D010F0200018BF3E
:1027D000002903D0284600F037FF2A685069296C89
:1027E00000F0400001F0080140182DD0D06820F41E
:1027F0009070D060506920F001005061286B012872
:1028000003D1D06820F01000D060202085F83E0071
:1028100000202863506940061ED5506920F0400012
:102820005061A86BC0B143F23D61C0F60001416345
:10283000FEF73CF900283FF471AFA86B416B02B082
:10284000BDE8B040084700BF2846FFF7F3FE002070
:10285000286402B0B0BD00BF284602B0BDE8B04059
:10286000FFF7E8BED16821F49071D160516921F081
:1028700001015161202185F83E1000212963D168B2
:1028800021F0100381B22846D36002B0BDE8B04009
:10289000FFF7CEBE286A30F8021B6FF35F2151604C
:1028A000286206E7002804BF0120704710B50446DF
:1028B00090F83D0028B9002084F83C00204600F044
:1028C0005FF8242084F83D002068D4E90212C36830
:1028D00023F40053C360036923F440531A43026195
:1028E000D4E904231143C268194341F20C639A43AB
:1028F0001143C1604169A26921F44071114343F65B
:102900000002C4F201029042416103D0FEF71EFCB6
:1029100002E000BFFEF72EFC6268192148439100D7
:10292000B0FBF1F048F21F51C5F2EB11A0FB0123FF
:102930005A096FF0630302FB0300322303EB00101C
:10294000A0FB0101F02303EA5113206803EB0212FC
:10295000C1F3431111448160016921F49041016187
:10296000416921F02A014161C16841F40051C1600F
:1029700000202021206484F83D1084F83E1010BD12
:1029800070B586B040F60004C4F20104006804F596
:10299000405100268842049602D006B070BD00BFA8
:1029A00041F21800C4F20200016802AD41F4804116
:1029B0000160016801F4804101910199016841F0D1
:1029C000040101600068294600F0040001900198AC
:1029D0004FF40070029002200390032005902046DF
:1029E000FEF70CF94FF48060CDE902062046294637
:1029F0000496FEF703F9252001210022FEF78AFA4A
:102A00002520FEF777FA06B070BD0000034690F867
:102A10003E0020280AD100294FF0010018BF002AEB
:102A200000D1704793F83C00012801D10220704783
:102A300000201863996222219A85DA85186483F848
:102A40003E10196883F83C00CA6842F48072CA607C
:102A50004A6942F001024A61CA6842F02002CA6033
:102A60007047000070B50446006843F60001C4F2E8
:102A70000101884251D140F22800C2F200000078E2
:102A800020283FD140F21405C2F20005E868012871
:102A900017DBAA68012030212A4412F8013C2E6974
:102AA000303B03FB006300EB80002B6102F8011C4C
:102AB000D5E902324000013AEA60A3F10102AA60BE
:102AC000EADCB5F9101000260020AE60EE6000F0E0
:102AD000BFFBB5F91010002000F0DCFBB5F91010B9
:102AE000002000F0F9FBB5F91010002000F016FCF2
:102AF00040F20410C2F2000000210022FDF77CFF2A
:102B00002E610AE040F21401C2F200018A68531CEF
:102B10008B608854C8680130C86040F22801C2F256
:102B2000000120460122BDE87040FFF76FBF0000A2
:102B30002DE9F04381B0044690F83D0020280DD1E6
:102B40000F4600294FF0010000F092801646002A3F
:102B500000F08E8094F83C00012803D1022001B0DF
:102B6000BDE8F083012084F83C004FF000092120EB
:102B70001D46C4F8409084F83D00FEF74DF9A68448
:102B8000E684A1688046B1F5805F25D120690028E0
:102B90001CBF38464F463E46074684F83C90E08CC2
:102BA00000B3681C20D0002D66D120680BE000BF68
:102BB00036F8021B00276FF35F214160E18C013979
:102BC000E184E18C81B30168090675D5002FEFD04F
:102BD00017F8011BF1E700BF002684F83C90E08C59
:102BE0000028DED120681FE0206802E001680906A5
:102BF00009D40168090606D4016809065CBF0168AA
:102C00005FEA0161F2D51FB117F8011B05E000BFB3
:102C100036F8021B00276FF35F214160E18C013918
:102C2000E184E18C0029E4D1016849061CD4002D1F
:102C300042D0691C0ED10168490615D401684906C5
:102C40005CBF01685FEA41610ED401684906F2D5B4
:102C50000AE000BFFEF7E0F8A0EB08012068A942F7
:102C60002AD800684006F5D5202084F83D000020D1
:102C700001B0BDE8F08300BF206800BF016809060D
:102C800008D4FEF7C9F8A0EB08012068A942F5D9DD
:102C900012E000BF17B117F8011B04E036F8021B61
:102CA00000276FF35F214160E18C0139E184E18C01
:102CB0000029E3D1B8E700BFC16821F4D071C16039
:102CC000416921F001014161202084F83D0084F830
:102CD0003E00002084F83C00032001B0BDE8F083F2
:102CE00070470000FEE700002DE9F04F85B041F28B
:102CF0001800C4F20200016841F2000541F0100121
:102D000001600168C4F2010501F01001019101990F
:102D10000168002241F020010160016846F2EF36AF
:102D200001F020010191019901684FF0000B41F081
:102D300004010160016801F0040101910199016839
:102D400041F008010160006846F2EF3100F0080030
:102D5000019001982846FEF759F8A5F50064204631
:102D60004FF4807101224FF480784FF00109FEF793
:102D70004DF8CDE9016901AE02274FF0030A28465C
:102D800031460397CDF810A0FDF738FF1020CDE9AC
:102D9000010B284631460397FDF730FF4FF4704092
:102DA000CDE9010BA5F580603146CDF80CB0FDF7FB
:102DB00025FF01A880E8000B20463146CDF810A081
:102DC000FDF71CFF05B0BDE8F08F000070B594B0B2
:102DD00040F20C1040F200450021C2F2000040F227
:102DE000E733C4F200050E91CDE90C110991CDE94C
:102DF0000711CDE90511CDE90311CDE9011140F22B
:102E00009F52C0E9021301618021C0E90052816133
:102E1000FEF702FC002818BFFDF7E8FD4FF48050D4
:102E20000B9040F20C10C2F200000BA9FEF754FD0B
:102E3000002818BFFDF7DAFD40F20C10C2F20000C6
:102E4000FFF7C6FA002818BFFDF7D0FD40F20C10BE
:102E50000024C2F2000008A9CDE90844FEF792FB65
:102E6000002818BFFDF7C2FD6020CDE901040394DE
:102E7000059440F20C14C2F2000401A9204600227D
:102E8000FFF77EF9002818BFFDF7B0FD20460021AE
:102E90000026FFF735FB206840F60001C4F2000170
:102EA0008842CDE91166109614D0A8422BD141F288
:102EB0001800C4F20200016841F0040101600068DA
:102EC00000F004000F900F984020109005F582301C
:102ED00012E000BF41F21800C4F20200016841F0A4
:102EE00008010160006800F008000F900F984FF48F
:102EF0007070109005F58430022111910321139117
:102F000010A9FDF77BFE14B070BD000070B594B041
:102F100040F2541040F600050021C2F200004FF4C8
:102F2000FA63C4F200050E91CDE90C110991CDE9C7
:102F30000711CDE90511CDE90311CDE901110122F8
:102F4000C0E9021301618021C0E900528161FEF7EE
:102F500063FB002818BFFDF749FD4FF480500B902C
:102F600040F25410C2F200000BA9FEF7B5FC002895
:102F700018BFFDF73BFD40F25410C2F20000FFF70E
:102F800027FA002818BFFDF731FD40F25410002445
:102F9000C2F2000008A9CDE90844FEF7F3FA0028C0
:102FA00018BFFDF723FD602001904FF4FA70CDE9C2
:102FB000020440F25410C2F2000001A9002205945C
:102FC000FFF7DEF8002818BFFDF710FD0020029083
:102FD00040F25410C2F2000001A90422FFF7D0F819
:102FE000002818BFFDF702FD40F25410C2F20000A5
:102FF00001A90822FFF7C4F8002818BFFDF7F6FC66
:1030000040F25414C2F2000401A920460C22FFF73A
:10301000B7F8002818BFFDF7E9FC2046002100267C
:10302000FFF76EFA20460421FFF76AFA20460821CE
:10303000FFF766FA20460C21FFF762FA2068129625
:10304000A8421196109617D040F20041C4F2000138
:1030500088422AD141F21800C4F20200016841F00E
:1030600004010160006800F004000F900F984020F8
:10307000109005F5803011E041F21800C4F2020012
:10308000016841F008010160006800F008000F903D
:103090000F984FF47070109005F582300221119155
:1030A0000321139110A9FDF7A9FD14B070BD000014
:1030B00010B58AB040F29C100021C2F2000040F628
:1030C00000424CF24F340991CDE90711CDE90411CA
:1030D000CDE90211CDE90011C4F200024723C0E995
:1030E000021401618021C0E900238161FEF794FA96
:1030F000002818BFFDF77AFC4FF48050069040F28C
:103100009C10C2F2000006A9FEF7E6FB002818BFDB
:10311000FDF76CFC40F29C10C2F20000FEF732FE9C
:10312000002818BFFDF762FC40F29C100024C2F298
:10313000000004A9CDE90444FEF724FA002818BFD2
:10314000FDF754FC022000900120CDE9010403901A
:1031500040F29C10C2F2000069460022FEF74EFDCC
:10316000002818BFFDF742FC40F29C10C2F200009C
:1031700069460422FEF742FD002818BFFDF736FC21
:1031800040F29C10C2F2000069460822FEF736FDAC
:10319000002818BFFDF72AFC40F29C10C2F2000084
:1031A00069460C22FEF72AFD002818BFFDF71EFC19
:1031B0000AB010BD80B582B040F2E41041F20002C6
:1031C0000021C2F20000C4F2000247234FF6FF7C48
:1031D000CDE90011C0E90023C0E9021C8161FEF7BE
:1031E0001BFA002818BFFDF701FC40F2E410C2F200
:1031F00000006946FEF7C6F9002818BFFDF7F6FB88
:1032000002B080BD10B540F22804C2F2000443F6BB
:103210000001C4F20101204640F8041F4FF4E131DF
:1032200000220C23C0E90112C0E90322C0E90532E3
:10323000C261FFF737FB002818BFFDF7D7FB201D41
:1032400021460122BDE81040FFF7E0BBFEE7000089
:1032500070B541F200060246B0FA80F0C4F20106F1
:103260000C46450930460221002A18BF0122FDF70D
:10327000CDFD304601212A46FDF7C8FD40F254112C
:1032800004EBE430C2F2000180EAE430096880B265
:10329000486370BD70B541F200060246B0FA80F096
:1032A000C4F201060C46450930460421002A18BF25
:1032B0000122FDF7ABFD304608212A46FDF7A6FDA9
:1032C00040F2541104EBE430C2F2000180EAE43031
:1032D000096880B2886370BD70B541F2000602468D
:1032E000B0FA80F0C4F201060C4645093046402190
:1032F000002A18BF0122FDF789FD304680212A46A9
:10330000FDF784FD40F2541104EBE430C2F20001F9
:1033100080EAE430096880B2C86370BD70B541F2DC
:1033200000060246B0FA80F0C4F201060C464509D8
:1033300030464FF48071002A18BF0122FDF766FD68
:1033400030464FF400712A46FDF760FD40F25411FB
:1033500004EBE430C2F2000180EAE430096880B294
:10336000086470BDFEE7000040F29000C2F2000069
:103370000021C0E90311C0E90811C0E90D11C0E93D
:10338000121170472DE9F04340F27000C2F20000C4
:1033900081785A2964D1C178012323EA0102827617
:1033A00023EAD1020579C276CA43D2B2D60923EA0A
:1033B0000502C27323EA5502427423EA950282731E
:1033C00023EAD50290F80190027423EA151723EA44
:1033D000551223EA9514ED43EDB223EA111C23EABA
:1033E000511823EA911EED09B9F1730F80F814C04A
:1033F00080F8128080F815E0C674077682754476EE
:10340000C57517D0B9F1410F18BFBDE8F083A8EB1F
:103410000601C1EBC1110173ACEB0E01C1EBC1118F
:103420004173511BC1EBC1118172391BC1EBC11139
:1034300015E000BF23EA510223EA91014177417967
:10344000C37902778279077A83F0800381F0800163
:103450000373C7F17F038172C2F17F014373C172AD
:10346000BDE8F0832DE9F04141F200080446002751
:10347000C4F20108002506E02806F1010137082FF3
:1034800041EA50653CD004F0010240464FF48041CF
:10349000FDF7BCFC40464FF400510122FDF7B6FC9D
:1034A000BC2000BF00BF00BF00BF18B100BF043880
:1034B000F8E700BF40464FF400510022FDF7A6FC9C
:1034C00040461021FDF79CFC0646BC2000BF00BF13
:1034D00000BF18B100BF0438F8E700BFE0B24408ED
:1034E00040464FF400510122FDF790FCBC2000BF84
:1034F00000BF00BF002800BFBED000BF0438F7E700
:10350000E8B2BDE8F0810000B0B541F20004C4F2B9
:103510000104204620210022FDF778FC0120FFF75E
:10352000A1FF40F27005C2F2000528704220FFF7AB
:1035300099FF6870FF20FFF795FFA870FF20FFF745
:1035400091FFE870FF20FFF78DFF2871FF20FFF744
:1035500089FF6871FF20FFF785FFA871FF20FFF743
:1035600081FFE871FF20FFF77DFF287220462021B0
:103570000122FDF74BFCBDE8B040FFF703BF0000A0
:10358000704700007047000080B540F2F000C2F2C2
:1035900000000068FCF78BFF48F20003C4F26603EA
:1035A0000022FCF7FAFE02460B46FCF7DDFD002385
:1035B000C3F6E0730022FCF7D7FD0023C4F2340306
:1035C0000022FCF7EAFE44F20003C4F28F0300225B
:1035D000FCF771FEFCF77CFF014640F20C10C2F2D2
:1035E0000000026843F68E20C0F600005163BDE87B
:1035F000804000F025BA000040F2E000C2F2000076
:103600008168C268016042607047000040F21000AB
:10361000C2F20000008840F2E001C2F2000108811D
:1036200048818881C8817047FDF7FCBB7047000066
:1036300040F29C10C2F20000FEF7E8BC406A002194
:10364000C185C184FEF7F6BF81B090F83E102229F3
:1036500020D18368B3F5805F08D10169002941D08A
:1036600000F128010A6803685B680AE0014651F826
:10367000282F13B90369002BF5D003685B6803F0AA
:103680007F0313700A6801320A60C18D01390A0490
:10369000C18501D001B070470168CA6822F02002DC
:1036A000CA60CA6822F48072CA604A6922F00102C4
:1036B0004A61202280F83E20026B012A1CD10022A0
:1036C0000263CB6823F01003CB600B68DB0605D5E3
:1036D00000920A680092496800910099818D01B0BA
:1036E000FEF7A6BF0168826A49686FF35F2122F87E
:1036F000021B8262C9E700BF01B0FFF7B3B9000047
:1037000040F22C00C2F20000FEF796BFFEE7000078
:1037100040F290004CF6CD414CF6CD42C2F2000092
:10372000C3F6CC51C3F64C620023C0E90012C0E9D5
:103730000213C0E90431C0E90621C0E90833C0E939
:103740000A12C0E90C13C0E90E31C0E91021C0E92A
:103750001233704780B582B0019040F22800C2F267
:103760000000043001A901224FF47A73FFF7E0F959
:10377000019802B080BD000090B0FDF761FB092008
:10378000002406904FF480300225CDE90704CDE9EE
:103790000D504FF4E01001210F9006A80B94CDE9D5
:1037A00009440A910C91FDF7F9FC28B1EFF3108060
:1037B00072B600BFFEE700BF0F20CDE901054FF450
:1037C0008060CDE9040401A802210394FDF7DEFB2B
:1037D00020B1EFF3108072B6FEE700BFFFF784FA66
:1037E000FFF710FDFFF792FBFFF7F0FAFFF760FC21
:1037F000FFF7E0FC40F29C14C2F200042046FEF702
:1038000027F820460021FEF753FB20460421FEF74F
:103810004FFB20460821FEF74BFB20460C21FEF70C
:1038200047FBFFF775FF13A000F00AF940F2790596
:10383000C2F2000516A600BFFFF766FE95F9031059
:1038400095F9042095F9013095F90240304600942D
:1038500000F02CF8FDF796F8FFF7D8FEFFF7CCFE46
:10386000FCF738FFFCF70AFFFFF78EFE0A20FDF792
:10387000B1F9E1E7696E70757420666F726D6174FD
:10388000203A20646174612B5B73706163655D0035
:103890004C583A2564204C593A25642052583A2510
:1038A000642052593A25640D0A0000000FB4054BFC
:1038B00010B503A9044A029800F018F810BC5DF88E
:1038C00014FB0000553700080000002002E008C883
:1038D000121F08C1002AFAD170477047002001E08A
:1038E00001C1121F002AFBD1704700002DE9FF4FD4
:1038F00089B09B460446002506E025280BD05A4691
:103900000B999047641C6D1C20780028F5D10DB0F0
:103910002846BDE8F08F0027B8460122474900E05D
:10392000074314F8013F203B02FA03F00842F7D1A5
:1039300020782E2819D114F8010F47F004072A28FF
:103940000ED06FF02F022078A0F1300109290CD899
:1039500008EB880102EB410100EB0108641CF2E76F
:103960000A98641C50F8048B0A9020780028CED066
:10397000642808D0692806D075281ED05A460B99AD
:1039800090476D1C58E00A994FF00A0901C90A9145
:10399000002802DA40422D2102E0390504D52B210E
:1039A0008DF82010012103E0F90704D02021F7E76A
:1039B0008A4608AE0DE00021FAE70A994FF00A099D
:1039C00001C90A91F7E74946FCF7A1FD303106F835
:1039D000011D0028F7D1ADEB060000F120097807A2
:1039E00001D44FF00108C84502DDA8EB090000E052
:1039F00000208046002706E008A85A46C05D0B99C3
:103A000090476D1C7F1C5745F6DB04E030205A467A
:103A10000B9990476D1CB8F10001A8F10108F5DC85
:103A200005E016F8010B5A460B9990476D1CB9F149
:103A30000001A9F10109F4DC641C65E70928010013
:103A400010B5044601E0FFF785FE14F8010B0449A8
:103A50000028F8D1BDE810400A20FFF77BBE000027
:103A60000000002001020000000000000000010230
:103A70000304060708090000000001020304020312
:103A80000405060708090A0B0C0D0E0F10107375BC
:103A9000636365737366756C6C79206D6F646966BA
:103AA000696564207769647468000000D03A000892
:103AB0000000002028000000CC380008F83A000878
:103AC0002800002018060000DC3800080000000074
:103AD0000000000001000000100000000024F400BD
:103AE000E8030000303030303030000000000000CB
:083AF0000000000000000000CE
:0400000508000131BD
:00000001FF
