:020000040800F2
:100000005006002049010008AD28000859230008C7
:10001000152700085D0700084531000800000000B2
:100020000000000000000000000000008F2A00080F
:100030001D0A0008000000008D2A00083D2B000862
:100040006301000863010008630100086301000800
:1000500063010008630100086301000863010008F0
:1000600063010008630100086301000863010008E0
:1000700063010008630100086301000863010008D0
:1000800063010008630100086301000863010008C0
:1000900063010008630100086301000863010008B0
:1000A00063010008630100086301000863010008A0
:1000B0006301000863010008630100086301000890
:1000C0006301000863010008630100086301000880
:1000D000630100083931000863010008630100086A
:1000E0006301000863010008630100086301000860
:1000F0006301000863010008630100086301000850
:100100006301000863010008A92B000863010008CF
:10011000630100086301000863010008630100082F
:10012000630100086301000863010008630100081F
:10013000DFF810D000F000FB004800479D330008B6
:10014000AFF300805006002006488047064800476D
:10015000FEE7FEE7FEE7FEE7FEE7FEE7FEE7FEE777
:10016000FEE7FEE7A52B000831010008202A04DB8A
:10017000203A21FA02F00021704721FA02F3D04020
:10018000C2F120029140084319467047D2B201E003
:1001900000F8012B491EFBD270470022F6E710B58C
:1001A00013460A4604461946FFF7F0FF204610BDE5
:1001B000F0B480EA0102D40F4200B2EB410F02D248
:1001C0000246084611464A0042D0C30DDDB2C1F3D3
:1001D000C752AD1A202D35DAC1F3160141F40002E1
:1001E00004B15242C5F1200602FA06F12A41104438
:1001F000B3EBD05F23D0C4B1012DA0EBC35009DC19
:10020000F0BC4FF0004202EAC352DBB200F500003E
:1002100000F006BA400000F1807000EBC350A0F17E
:10022000807040EAD170490009E0490841EAC07194
:10023000A0EBC35000F50000400800EBC350F0BC39
:1002400000F0E5B96142012202EB4101001BF6E733
:10025000F0BC704781F00041AAE780F00040A7E7BA
:1002600080EA010210B502F00043400022D04A00AB
:100270001FD0010E01EB1261C0F35600C2F356020B
:1002800040F4000042F40002A0FB022000047F3989
:10029000140400D0401C50EA124001D44000491E12
:1002A000C2B20C0604EBD010401C4008802A02D0D9
:1002B00003E0002010BD20F00100002900DA00203A
:1002C000184310BD30B480EA010202F0004530F05E
:1002D000004221F0004013D090B1C30DD40DC2F301
:1002E0001601C0F31600E41A41F4000140F40002C4
:1002F0007D34914201D3641C00E04900002C02DAF5
:1003000030BC002070474FF400000023914201D31D
:10031000891A034340084FEA4101F7D151B1914294
:1003200002D14FF0004105E002D24FF0010101E09F
:100330006FF0010103EBC450284430BC00F067B9F2
:100340002DE9FE4F81EA030404F0004421F000414E
:1003500000944FF0000B23F0004350EA01045ED0FC
:1003600052EA03045BD0C3F30A54C1F30A552C4488
:10037000A4F2F3340194A0FB0254C1F3130141F43D
:100380008011C3F3130343F4801301FB024400FB09
:10039000034E840A970A44EA815447EA8357A4FB30
:1003A000076802958D0A05FB07854FEA932C04FB2D
:1003B0000C542705029D4FEA065847EA1637B5EB5D
:1003C00008056EEB070C870E920E47EA811742EA8A
:1003D0008312A7FB0201B6EB0B0164EB00042B0DAB
:1003E00043EA0C335E1844EB1C50DA465146E7FBF7
:1003F0000201C5F313044FEA0B3343EA14534FEAE7
:100400000432019C43EA0603A4F10C040294009C0C
:10041000CDE900B400F041F903B0BDE8F08F002051
:100420000146F9E72DE9F04D81EA030404F0004BA1
:1004300021F0004514464FF0000A23F0004150EA35
:10044000050220D054EA01021DD0C5F30A57024626
:10045000C5F31303C1F31300C1F30A5640F480152A
:1004600043F48013A7EB0608101BD64608F2FD38AC
:1004700073EB050002D308F1010801E092185B411B
:10048000B8F1000F03DA00200146BDE8F08D00202E
:100490004FF48011064684460EE0171B73EB0507E8
:1004A00005D3121B63EB050306434CEA010C490814
:1004B0004FEA300092185B4150EA0107EDD152EA51
:1004C000030012D082EA040083EA0501084305D044
:1004D000101BAB4106D20122002306E000224FF0A0
:1004E000004302E06FF0010253101AEB06004CEBE0
:1004F000085110EB0A0041EB0B01BDE8F04D00F094
:10050000BDB8C10F80EAE0700844CA0796230021F5
:1005100000F086B80EB540F2334102910021CDE9DA
:1005200000110A460B4600F0B8F803B000BD00F019
:10053000004220F00040C10DC0F3160040F400005E
:100540007F2901DA00207047962903DCC1F196016A
:10055000C84001E096398840002AF4D040427047F4
:10056000C1F30A5210B5C1F3130140F2FF3341F455
:1005700080119A4201DA002010BD40F233439A42C2
:10058000A2F2334203DC5242FFF7F0FD10BD90406F
:1005900010BD000030B5041E71F1000404DB4FF003
:1005A0000044404264EB0101141E73F1000405DBBA
:1005B0001C464FF00043524263EB0403994208BFCC
:1005C000904230BD30B50B46014600202022012468
:1005D00009E021FA02F59D4205D303FA02F5491B11
:1005E00004FA02F52844151EA2F10102F1DC30BD27
:1005F000202A04DB203A00FA02F1002070479140E3
:10060000C2F1200320FA03F31943904070470029F8
:10061000A8BF7047401C490008BF20F00100704788
:1006200010B4B0FA80FC00FA0CF050EA010404BFE8
:1006300010BC704749B1CCF1200421FA04F411FA3E
:100640000CF118BF012121430843A3EB0C01CB1D82
:100650004FEA00614FEA102042BF002010BC7047F3
:1006600000EBC35010440029A4BF10BC7047401CCD
:10067000490008BF20F0010010BC704710B5141EDF
:1006800073F1000408DA401C41F1000192185B414B
:100690001A4301D120F0010010BD2DE9F04D924622
:1006A0009B4611B1B1FA81F202E0B0FA80F2203239
:1006B0009046FFF79DFF04460F4640EA0A0041EAD4
:1006C0000B0153465A46084313D0114653EA010022
:1006D00019D0C8F140025046FFF748FD05460E46C6
:1006E000504659464246FFF783FF084305D0012094
:1006F00004E020463946BDE8F08D0020054346EA77
:10070000E0762C4337430A986305E40AA0EB08001F
:100710000022FD0A44EA47540A3002D5002001466F
:10072000E9E7010510196941DDE90845001969414A
:10073000BDE8F04DA2E70000064C074D06E0E0687A
:1007400040F0010394E8070098471034AC42F6D318
:10075000FFF7F2FC3835000858350008FEE70000C6
:1007600070B5914C91A0216902F0EEFC218993A013
:1007700002F0EAFC984DE878002846D1287998B92B
:100780000021084601F0C8FF0021084601F0D6FF0D
:100790000021084601F0E4FF0021084601F0F2FFC5
:1007A00002F086F8E87880BB28797F2815D1208967
:1007B00001B2002001F0B0FF608901B2002001F019
:1007C000BDFFA08901B2002001F0CAFFE08901B29B
:1007D000002001F0D7FFE878B8B995F904007F3020
:1007E0002CD1208901B2012001F096FF608901B26D
:1007F000012001F0A3FFA08901B2012001F0B0FFA8
:10080000E08901B2012001F0BDFFE8787F2815D111
:10081000287998B9208901B2002001F07DFF608914
:1008200001B2012001F08AFFA08901B2002001F08D
:1008300097FFE08901B2012001F0A4FF95F90300C0
:100840007F3048D12879B8B9208901B2012001F060
:1008500063FF608901B2002001F070FFA08901B23E
:10086000012001F07DFFE08901B2002001F08AFF44
:1008700095F903007F302ED128797F2815D10021EA
:10088000012001F049FF608901B2002001F056FF0C
:100890000021012001F064FFE08901B2002001F095
:1008A00071FF95F903007F3015D195F904007F3071
:1008B00042D1208901B2012001F02EFF0021012048
:1008C00001F03CFFA08901B2012001F049FF0021A5
:1008D000012001F057FFE8787F282DD128797F2863
:1008E00014D1208901B2002001F016FF002101205F
:1008F00001F024FFA08901B2002001F031FF0021A6
:10090000012001F03FFFE8787F2815D195F9040018
:100910007F3011D10021012001F0FEFE608901B27B
:10092000012001F00BFF0021012001F019FFE089F7
:1009300001B2012001F026FF95F901007F3016D1A8
:10094000A87800282FD1208901B2012001F0E4FE0F
:10095000608901B2012001F0F1FEA08901B20020FE
:1009600001F0FEFEE08901B2002001F00BFF687883
:100970007F2818D1A878002815D1208901B200203D
:1009800001F0CAFE608901B2002001F0D7FEA08903
:1009900001B2012001F0E4FEE089BDE8704001B23F
:1009A000012001F0EFBE70BD300000205F73706564
:1009B00065645F203A2025640A0000006D6F746F43
:1009C00072415F70776D5F5049445F737065656415
:1009D000203A2025640A0000E50100200D48C37B71
:1009E000027C0D48012B016909D0002B06D1012A98
:1009F00004D1491F016101D5002101617047002A1E
:100A0000FCD1491D4FF47A7201619142F6DD026119
:100A100070470000E501002030000020704772B6EA
:100A2000FEE700002DE9F041154C164D164E174F0C
:100A30008046914200D8114601EB81008000FFF70B
:100A400069FD22462B46FFF77BFC00223346FFF769
:100A500077FC00223B46FFF7E5FC0D4604460022EA
:100A60000B4BFFF797FD02D20020094901E0204619
:100A70002946FFF775FDA8F80000BDE8F0810000E9
:100A8000A7E8482EFF2109400000544000A0744010
:100A900000408F4010B590F821100022022905D0A7
:100AA0000421816380F82020012010BD01680B68BB
:100AB00023F00E030B6001680B6823F001030B6049
:100AC00090F84030C46B012101FA03F3636080F8B1
:100AD000211080F82020104610BD00002DE9F05FA5
:100AE00090F821100024022903D0042181630124FD
:100AF00085E001680A6822F00E020A6001680A684F
:100B000022F001020A603F4E3E4FB215DFF8F4C0FA
:100B1000DFF8F090DFF8ECA0DFF8E8B0DFF8E4E011
:100B20000168783F13011502ACF1640CA9F150097A
:100B3000AAF13C0AABF1280BAEF1140E4FF4801869
:100B4000B14227D9B9420ED0614512D049451DD0D6
:100B5000514518D0594518D0714501D1424615E08C
:100B6000294EB14201D1012210E0274E1436B14284
:100B700001D110220AE0244E2836B14206D0224A82
:100B80003C32914201D11A4600E02A461E49091F13
:100B90000A602BE0B94213D0614517D0494522D0F5
:100BA00051451DD059451DD0714501D142461AE02D
:100BB000B14202D14FF0807215E0134EB14201D123
:100BC000012210E0104E1436B14201D110220AE089
:100BD0000D4E2836B14206D00B4A3C32914201D12B
:100BE0001A4600E02A46074980394A60012180F808
:100BF0002110002180F82010416B01B18847204668
:100C0000BDE8F09F800002400804024070B5044631
:100C100000F014F90546601C02D004480078044432
:100C200000F00CF9401BA042FAD370BD1800002060
:100C30002DE9F84FDFF8C891002409F1040A0AF100
:100C4000040B23460F270BF1040ED1E00125A5402C
:100C500006EA0502AA4276D1DFF8A8C14E68A6EBE3
:100C60000C0866452BD00DDC032E34D005DC36B3E2
:100C7000012E19D0022E2FD11BE0112E16D0122ECC
:100C80002AD119E0B8F5881F19D006DCB8F5803FE5
:100C900015D0B8F5801F1FD111E0B8F5001F0ED098
:100CA000B8F5041F18D10AE0CB6815E0CB681B1D0E
:100CB00012E0CB6808330FE0CB680C330CE08B6894
:100CC0002BB1012B4FF0080303D0456104E004234E
:100CD00002E0056100E00023FF2A01D8064601E09A
:100CE00000F104064FEA840501D9A5F12005D6F8E4
:100CF000008007FA05FC28EA0C0803FA05F548EA23
:100D00000508C6F800804D68ED0070D53E4DAE690F
:100D100046F00106AE61AD6924F0030605F0010559
:100D200000953A4D06EB050CDCF80850A607360F87
:100D300007FA06F825EA0805DFF8D480404503D114
:100D40004FF0000825E052E0DFF8C880404502D1AE
:100D50004FF001081DE0DFF8C080404502D14FF0A0
:100D6000020816E0DFF8B480404502D14FF00308D6
:100D70000FE0DFF8AC80404502D14FF0040808E0F6
:100D8000DFF8A080404502D14FF0050801E04FF0A8
:100D9000060808FA06F848EA0508CCF808804D6805
:100DA000D9F80060ED034D4601D5164300E09643A7
:100DB0002E604D68DAF80060AD03554601D5164344
:100DC00000E096432E604D68DBF80060ED025D4662
:100DD00001D5164300E096432E604D68DEF80060B2
:100DE000AD02754601D5164300E096432E60641CA3
:100DF0000A681646E2407FF429AFBDE8F88F00008C
:100E000000040140000011100010024000000140E9
:100E100000080140000C0140001001400014014096
:100E200000180140001C01408068084000D00120EB
:100E300070470AB1016170470904FBE70148806807
:100E400070470000180000200248816802781144B1
:100E50008160704718000020074810B5016841F014
:100E600010010160032000F075F80F2000F006F873
:100E700000F024F8002010BD0020024070B50D4D98
:100E800004464FF47A712878B1FBF0F00A490968FA
:100E9000B1FBF0F000F0ECFA48B9102C07D20022B8
:100EA0002146501E00F036F800206C6070BD012015
:100EB00070BD000018000020240000200C4808B578
:100EC000816941F001018161816901F001010091B5
:100ED000C16941F08051C161C06900F0805000904B
:100EE0000448416821F0E06141F00071416008BDB3
:100EF0000010024000000140002809DB00F01F0242
:100F0000012191404009800000F1E020C0F800116B
:100F100070470000F0B40E4B1B680C46C3F302236D
:100F2000C3F10705042D00D90425191D072901D295
:100F3000002300E0DB1E012606FA05F1491E2140D0
:100F400099409E40761E16403143F0BC02F00CB929
:100F50000CED00E0064900F0070208684FF6FF03B9
:100F6000184040EA0220034A10430860704700001E
:100F70000CED00E00000FA052DE9F0470F460500F2
:100F800061D0434E306800F00700B84209D23068A3
:100F900020F0070038433060306800F00700B842A6
:100FA00051D128683B4C810712D5400703D56068B2
:100FB00040F4E06060602878000703D5606840F482
:100FC000605060606068A96820F0F00008436060CD
:100FD0002878C00728D06868012810D02168022826
:100FE00010D0890700292EDA616821F0030101433E
:100FF0006160FFF723FF804641F288390DE02168E8
:101000008903EFE78901EDE7FFF718FFA0EB08017F
:10101000494502D90320BDE8F0876068696800F09F
:101020000C00B0EB810FEFD1306800F00700B84240
:101030000BD9306820F0070038433060306800F08A
:101040000700B84201D00120E5E72878400705D520
:101050006068E96820F4E060084360602878000771
:1010600006D56068296920F4605040EAC1006060DC
:1010700000F038F86168084AC1F30311515CC840B8
:101080000649086006480068FFF7F8FE0020C2E73E
:1010900000200240001002402035000824000020FB
:1010A0001C0000200448054900684968044AC1F34F
:1010B0000221515CC840704724000020001002400B
:1010C000303500080448054900684968044AC1F3FE
:1010D000C221515CC840704724000020001002402B
:1010E0003035000812A185B00FC98DE80F0014A09B
:1010F000144A006804905168134801F00C03042B53
:1011000010D0082B0ED1C1F38343C9031DF803008F
:101110000AD5516804AAC1F34041515C0A4A5043C0
:10112000B0FBF1F005B0704708494843FAE700000A
:1011300002030405060708090A0B0C0D0E0F101018
:10114000010200000010024000127A0000093D0078
:101150002DE9F84F040070D02078C04DC00749D069
:101160006868C0F38100012807D06868C0F3810077
:10117000022809D16868C00306D52868800339D5DC
:1011800060680028E7D035E06068B0F5803F0BD09C
:1011900010B1B0F5A02F11D0286820F4803028605D
:1011A000286820F4802002E0286840F4803028601D
:1011B000606890B1FFF742FE06460AE0286840F4F6
:1011C00080202860F0E700BFFFF738FE801B64280E
:1011D00073D828688003F7D50CE0FFF72FFE06468A
:1011E00005E000BFFFF72AFE801B6428F0D82868BE
:1011F0008003F7D420789A4E80074FF001094FF012
:10120000000839D5686810F00C0F07D06868C0F383
:101210008100022809D16868C00306D428688007C5
:1012200014D52069012808D110E02069B0B1C6F8B2
:101230000090FFF703FE074605E00AE1FFF7FEFD19
:10124000C01B0228C4D828688007F7D528686169C0
:1012500020F0F80040EAC10028600DE0C6F80080E8
:10126000FFF7ECFD074604E0FFF7E8FDC01B02288E
:1012700023D828688007F7D4207800072CD5794830
:10128000A169D9B1C0F80090FFF7D8FD074604E086
:10129000FFF7D4FDC01B02280FD8686A8007F7D576
:1012A00071484FF4FA510068B0FBF1F0009000BFB4
:1012B0000098411E0091FAD20EE080E0C0F8008054
:1012C000FFF7BCFD074604E0FFF7B8FDC01B02288E
:1012D00075D8686A8007F7D42078400760D5E86938
:1012E0000027C00008D4E86940F08050E861E86950
:1012F000012700F0805000905C480168C90513D4B4
:101300000168834641F480710160FFF797FD8246D2
:1013100006E000BFFFF792FDA0EB0A0064284ED85C
:10132000DBF80000C005F5D5E06801280AD008B157
:10133000052813D0286A20F001002862286A20F0CE
:10134000040002E0286A40F001002862E06841F2EF
:10135000883B98B1FFF772FD82460BE0286A40F0A7
:1013600004002862EEE700BFFFF768FDA0EB0A016A
:1013700059455AD8286A8007F6D50CE0FFF75EFD7C
:10138000824605E0FFF75AFDA0EB0A0159454CD80B
:10139000286A8007F6D41FB1E86920F08050E86120
:1013A000E06988B36968C1F38101022944D0022849
:1013B000C6F8608004D0FFF741FD044638E034E011
:1013C000FFF73CFD074604E0FFF738FDC01B02288D
:1013D0002BD828688001F7D4206AB0F5803F05D16A
:1013E0006868A16820F4003008436860D4E9080107
:1013F0000843696821F4741108436860C6F8609076
:10140000FFF71CFD044606E025E000BFFFF716FDD0
:10141000001B022809D828688001F7D51BE000BF0F
:10142000FFF70CFD001B022802D90320BDE8F88F4E
:1014300028688001F4D40EE00128F7D06868226A99
:1014400000F48031914204D1616A00F47010884246
:1014500001D00120EAE70020E8E700000010024088
:1014600000004242800442422400002000700040FC
:1014700010B5401EB0F1807F01D3012010BD4FF0A8
:10148000E02460610F21601701F06EFE0020A06172
:1014900007202061002010BD7047704770B590F89C
:1014A0003C20012A2CD0012480F83C40022280F804
:1014B0003D2003685A689D6822F070060A6832432E
:1014C0005A60104B02689A420ED00F4B9A420BD0D2
:1014D000B2F1804F08D00D4B9A4205D00C4B9A4286
:1014E00002D00C4B9A4204D1496825F0800319437D
:1014F000916080F83D40002180F83C10084670BDA6
:10150000022070BD002C0140003401400004004066
:1015100000080040000C004010B5040003D094F80F
:101520003D0010B107E0012010BD002084F83C0010
:10153000204600F01FF8022084F83D00211D20689D
:1015400001F038FB012084F8460084F83E0084F85E
:101550003F0084F8400084F8410084F8420084F899
:10156000430084F8440084F8450084F83D000020DE
:1015700010BD000000B585B00021009101910291DD
:1015800003912D4A01682D48914207D1C16941F06C
:101590000201C161C06900F0020009E0284A9142DD
:1015A00009D1C16941F00401C161C06900F00400C2
:1015B000049005B000BD234A914231D1C16941F088
:1015C0000801C161C16901F008010491816941F01C
:1015D000040181618069694600F0040004900F20D5
:1015E00000901948FFF724FB002211463220FFF734
:1015F00091FC3220FFF780FC144800F02BF800210A
:10160000124800F0FBF90421104800F0F7F9082116
:101610000E4800F0F3F90C210C4800F0EFF9C8E790
:101620000B4A9142C5D1C16941F01001C161C06945
:1016300000F01000BCE70000000400400010024071
:1016400000080040000C004000080140D8000020C5
:101650000010004090F83D10012901D00120704792
:10166000022180F83D100168CA6842F00102CA6098
:1016700000680E4988420ED00D4988420BD0B0F167
:10168000804F08D00B49884205D00B49884202D0D0
:101690000A49884204D1816801F00701062903D074
:1016A000016841F00101016000207047002C0140F9
:1016B000003401400004004000080040000C0040DD
:1016C00070B5044690F83C00012817D0012584F835
:1016D0003C50022084F83D002068826822F07702A6
:1016E00022F47F4282600868502830D00DDC202828
:1016F0004DD005DC98B310283BD148E0022070BDE6
:10170000302844D0402834D139E0602828D07028CF
:1017100006D0B0F5805F2CD0B0F5005F29D10AE08B
:10172000CB68D1E90121206801F097FA206881682F
:1017300041F0770109E0CB68D1E90121206801F08F
:101740008CFA2068816841F48041816011E0CA68A8
:101750004968206801F056FB5021206807E016E038
:10176000CA684968206801F095FB6021206801F093
:101770007EFA84F83D50002084F83C0070BDCA68B1
:101780004968206801F03EFB40212068EFE72268AD
:1017900001461046EBE700002DE9F047384A0168A2
:1017A000914228D1017F002601273648364D374C1B
:1017B00001290ED0022925D004293AD008291AD1AE
:1017C0004FF4004949468046FFF72EFB012847D0D9
:1017D0004AE04FF4805949468046FFF725FB01282F
:1017E0000BD049464046FFF71FFB002803D12E705F
:1017F0006088401C6080BDE8F0872F702088401C06
:101800002080F8E74FF4005949468046FFF70CFB6B
:10181000012803D12F71A088401CA0804946404672
:10182000FFF702FB0028E6D12E71E088401CE08023
:10183000E1E74FF4804949468046FFF7F5FA012871
:1018400003D12F722089401C208149464046FFF772
:10185000EBFA0028CFD12E726089401C6081CAE764
:101860002F73A089401CA08149464046FFF7DCFA4F
:101870000028C0D12E73E089401CE081BBE7000046
:10188000000C0040000C0140CC010020BC010020F5
:101890002DE9F041054690F83C000C46012836D071
:1018A000012085F83C008AB3042A42D02868082A1F
:1018B00051D0D4E90023E168066A26F48056066216
:1018C000C669076A26F4407646EA03234FF6FF7698
:1018D00006EA013123F4704319434FF4005627F40C
:1018E000005306EA02321A43C16102622868C169E4
:1018F00021F44061C1612868C169A26841EA0221FE
:10190000C161002085F83C00BDE8F08101E00220C3
:10191000FAE7D4E90012E368286801F085FA28683C
:10192000816921F00C01816128688169A2681143F5
:101930000FE0D4E90012E368286801F0BDFA2868D6
:10194000816921F44061816128688169A26841EA66
:1019500002218161D5E7D4E90027267B016A21F4C1
:1019600080710162C169036A21F00301394321F0EA
:10197000F00731074FF4007647EA116123F4007352
:1019800006EA02221A43C16102622868C16921F095
:101990000C01C1612868C169A2681143B0E710B5A4
:1019A000040003D094F83D0010B107E0012010BD01
:1019B000002084F83C00204600F01EF8022084F845
:1019C0003D00211D206801F0F5F8012084F8460053
:1019D00084F83E0084F83F0084F8400084F8410019
:1019E00084F8420084F8430084F8440084F84500F9
:1019F00084F83D00002010BD7047000010B504467B
:101A000051B104290DD0082910D094F8410094F860
:101A10004520012811D10EE094F83E0094F84220B0
:101A2000F7E794F83F0094F84320F2E794F8400079
:101A300094F84420EDE7012A01D0012010BD0220D6
:101A400051B1042911D0082918D084F8410084F834
:101A500045000C291BD13CE084F83E0084F842008C
:101A60002068C26842F0020210E084F83F0084F867
:101A700043002068C26842F0040207E084F8400096
:101A800084F844002068C26842F00802C260012263
:101A9000206801F0D5F81149206888420ED010491D
:101AA00088420BD0B0F1804F08D00E49884205D053
:101AB0000D49884202D00D49884204D1816801F065
:101AC0000701062903D0016841F0010101600020EF
:101AD00010BD2068C26842F01002D7E7002C014018
:101AE000003401400004004000080040000C0040A9
:101AF00070B50446006801694FF00005C9438907C5
:101B000015D4C168C943890711D4E91E01610120B8
:101B10002077206880698007204602D0FFF73CFECE
:101B200004E000F0D7F8204600F066F92577206839
:101B30000169C943490717D4C168C943490713D488
:101B40006FF004010161022020772068806910F4A1
:101B5000407F204602D0FFF71FFE04E000F0BAF8F5
:101B6000204600F049F9257720680169C943090733
:101B700016D4C168C943090712D46FF00801016186
:101B8000042020772068C0698007204602D0FFF734
:101B900003FE04E000F09EF8204600F02DF92577C2
:101BA00020680169C943C90617D4C168C943C90679
:101BB00013D46FF010010161082020772068C069FC
:101BC00010F4407F204602D0FFF7E6FD04E000F06D
:101BD00081F8204600F010F9257720680169C94393
:101BE000C90708D1C168C943C90704D1891E016169
:101BF000204600F05DF920680169C943090609D44F
:101C0000C168C943090605D46FF08001016120460F
:101C1000FFF742FC20680169C943490609D4C1683D
:101C2000C943490605D46FF040010161204600F028
:101C300063F920680169C94389060BD4C168C943A7
:101C4000890607D46FF0200101612046BDE870408D
:101C5000FFF723BC70BD000010B586B000210091D5
:101C6000019102910391164C036816480221032248
:101C7000A3420ED1836943F0040383618069039218
:101C800000F0040004904020CDE9000169460E48B0
:101C900011E00E4CA34210D1836943F00803836125
:101CA0008069039200F0080004904FF47070CDE951
:101CB000000169460648FEF7BBFF06B010BD0000F4
:101CC00000040040001002400008014000080040ED
:101CD000000C0140704770B5044690F83C000D467A
:101CE00001280AD0012084F83C0042B1042A18D00F
:101CF000082A2AD00C2A4DD139E0022070BD206874
:101D000000F0BEFF2068816941F008018161206810
:101D1000816921F004018161206881692A69114388
:101D200011E0206800F0DCFF2068816941F4006167
:101D300081612068816921F4806181612068816905
:101D40002A6941EA0221816124E0206800F0FEFF57
:101D50002068C16941F00801C1612068C16921F0B2
:101D60000401C1612068C1692A69114311E020683A
:101D700001F020F82068C16941F40061C161206868
:101D8000C16921F48061C1612068C1692A6941EAA1
:101D90000221C161002084F83C0070BD10B5040030
:101DA00003D094F83D0010B107E0012010BD0020E1
:101DB00084F83C00204600F01EF8022084F83D0024
:101DC000211D206800F0F6FE012084F8460084F80A
:101DD0003E0084F83F0084F8400084F8410084F815
:101DE000420084F8430084F8440084F8450084F8F5
:101DF0003D00002010BD70477047000010B504463C
:101E0000022249B104290ED0082913D094F84100C8
:101E1000012816D0012010BD94F83E000128F9D108
:101E200084F83E200FE094F83F000128F2D184F8B6
:101E30003F2008E094F840000128EBD184F84020CE
:101E400001E084F841200122206800F0F9FE1349E6
:101E50002068134A884201D0904203D1436C43F476
:101E600000434364206888420DD090420BD0B0F10B
:101E7000804F08D00B49884205D00B49884202D0D8
:101E80000A49884204D1816801F00701062903D07C
:101E9000016841F001010160002010BD002C0140EB
:101EA000003401400004004000080040000C0040E5
:101EB00070B50F4C0F4862882188FEF7B3FD0D4DB9
:101EC000E288A188A81CFEF7ADFD62892189281D42
:101ED000FEF7A8FDE289A189A81DFEF7A3FD002059
:101EE0004FEA000124F81010401C0828FADB70BDEE
:101EF000BC01002028000020704770477047000098
:101F0000F8B5026804461068D168536910F00F0FE5
:101F10004FF0000553D003F0010601F490773743EA
:101F20005FD0C20705D0CA0503D5226C42F001027A
:101F30002264420705D5DA0703D0226C42F0020280
:101F40002264820705D5DA0703D0226C42F004022E
:101F50002264020707D501F02002324303D0226C2D
:101F600042F008022264226C002A34D0800604D594
:101F7000880602D5204600F0DAFF20684069216C0F
:101F8000C0F38010090700D430B3204600F0B7FF3B
:101F90002068416949061BD5416921F04001416132
:101FA000A06BA8B158494163A06BFEF797FD0028CC
:101FB00011D0A06B416B01B0BDE8F040084783062B
:101FC0000FD58B060DD52046BDE8F84000F0AFBF19
:101FD0002046FFF793FFF8BD2046FFF78FFF2564EB
:101FE000F8BD266B2023012E52D1C60650D5CE0651
:101FF0004ED5106850680090506940062AD5A16BF4
:10200000086840680004000CEAD0A68D8642E7D933
:10201000E0858869202818D0D06820F48070D060CE
:102020002068416921F0010141612068416921F086
:102030004001416184F83E3025632068C16821F089
:102040001001C160A06BFEF725FDA08DE18D401A47
:1020500081B219E0A08DE18D401A81B2E08D002897
:10206000BED00029BCD0D06820F49070D060206829
:10207000426922F00102426184F83E302563206803
:10208000C26822F01002C2602046FFF736FFF8BD9A
:1020900005062BD50D0629D594F83D002128F6D14B
:1020A000A068B0F5805F01D12069B0B1206A411C01
:1020B0002162216800784860E08C401E0004000C1A
:1020C000E084E4D12068C16821F08001C16020680B
:1020D000C16841F04001C160F8BD206A0088C0F3CA
:1020E00008005060206A801C2062E5E74006F3D5B6
:1020F0004806F1D5D168204621F04001D16084F82E
:102100003D3000F028F9F8BDEF2E000870B504004E
:1021100004D094F83D00002510B106E0012070BD08
:1021200084F83C50204600F023F8242084F83D0039
:102130002068C16821F40051C160204600F052FFC0
:102140002068016921F4904101612068416921F012
:102150002A0141612068C16841F40051C1602564D1
:10216000202084F83D0084F83E00002070BD00006F
:1021700030B585B000240094019402940394006863
:10218000184988422CD11848816941F48041816105
:10219000816901F480410491816941F00401816108
:1021A0008069124D00F0040004904FF4007000901C
:1021B000022001900320039069462846FEF738FD6F
:1021C0002815CDE90004694628460294FEF730FD43
:1021D000002201212520FEF79DFE2520FEF78CFE22
:1021E00005B030BD00380140001002400008014039
:1021F00090F83E30202B0ED159B152B190F83C30BE
:10220000012B08D0012380F83C300023036300F049
:1022100045BF0120704702207047000070B5054699
:1022200000681C4988420DD11B481B4C0078241DB6
:1022300020280ED0A1686054A068401CA060E0680F
:10224000401CE0602846BDE8704001221249FFF7BB
:10225000CFBF1148001D01F077F8208A01B200209D
:1022600000F05AFA208A01B2002000F067FA208AB2
:1022700001B2002000F074FA208A01B2002000F0C0
:1022800081FA0648428801880548FEF7CBFB00200A
:102290002061D7E7003801400000002068010020DD
:1022A000280000202DE9F843044690F83D001F4621
:1022B00016460D4620284CD1C5B1BEB194F83C005D
:1022C000012846D0012084F83C004FF00008C4F8F3
:1022D0004080212084F83D00FEF7B0FDA6848146B1
:1022E000E684A068B0F5805F03D004E00120BDE87B
:1022F000F883206928B12E465FF0000584F83C8001
:102300000EE00026FAE78021204600F0E2FEA0B9A8
:10231000AEB116F8010B21684860E08C401EE084E5
:10232000E08C4B464FF0000200970028EBD14FF0B5
:102330004001204600F0CDFE30B10320D7E735F84C
:10234000020BC0F30800E6E7202084F83D000020DF
:10235000CDE70220CBE77047FEE700002DE9F0470C
:1023600086B000242E48009401940294039481695D
:1023700041F010018161816901F0100104918169CE
:1023800041F020018161816901F02001049181699E
:1023900041F004018161816901F0040104918169C6
:1023A00041F0080181618069DFF8789000F0080051
:1023B00046F2EF350490002229464846FEF739FDE3
:1023C000DFF864A04FF48078012241465046FEF7C2
:1023D00030FD009501AA01250226032782E8E000CE
:1023E00069464846FEF724FC10208DE851006946F6
:1023F0004846FEF71DFC4FF47040CDE900046946E5
:102400000A480294FEF714FCCDF800800397CDE94A
:10241000015469465046FEF70BFC06B0BDE8F08754
:10242000001002400010014000080140000C014073
:1024300010B58EB000240794089409940A940B9464
:102440001C2168460C94FDF7A8FE21481F49016035
:1024500040F29F51C0E9011440F2E731C0E9031492
:1024600080218161FFF758F808B1FEF7D8FA4FF4E0
:102470008050079007A91648FFF722F908B1FEF728
:10248000CEFA1348FFF78AFC08B1FEF7C8FA0B949E
:102490000BA90F480C94FFF701F808B1FEF7BFFA3B
:1024A0006020CDE9000402940022694608480494A3
:1024B000FFF711FC08B1FEF7B2FA00210448FFF75C
:1024C0009DFC0348FFF7C8FB0EB010BD00040040A0
:1024D0004800002010B58EB0002407940894099499
:1024E0000A940B941C2168460C94FDF756FE344860
:1024F000324901600121C0E901144FF4FA61C0E9D9
:10250000031480218161FFF707F808B1FEF787FA0D
:102510004FF48050079007A92948FFF7D1F808B178
:10252000FEF77DFA2648FFF739FC08B1FEF777FA87
:102530000B940BA922480C94FEF7B0FF08B1FEF7EC
:102540006EFA602000904FF4FA70CDE90104002289
:1025500069461B480494FFF7BEFB08B1FEF75FFA1B
:102560000422694616480194FFF7B5FB08B1FEF74F
:1025700056FA082269461248FFF7ADFB08B1FEF78C
:102580004EFA0C2269460E48FFF7A5FB08B1FEF78C
:1025900046FA00210A48FFF731FC04210848FFF7FA
:1025A0002DFC08210648FFF729FC0C210448FFF701
:1025B00025FC0348FFF750FB0EB010BD000800409B
:1025C0009000002010B58AB000242F480494059490
:1025D000069407940894099400940194029429495C
:1025E000039401604721C0E901144CF24F31C0E966
:1025F000031480218161FEF78FFF08B1FEF70FFA07
:102600004FF48050049004A91F48FFF759F808B10F
:10261000FEF705FA1C48FFF7C2F908B1FEF7FFF90B
:10262000089408A918480994FEF738FF08B1FEF786
:10263000F6F9022000900120CDE901040390002268
:1026400069461148FFF724F908B1FEF7E8F90422BA
:1026500069460D48FFF71CF908B1FEF7E0F90822BA
:1026600069460948FFF714F908B1FEF7D8F90C22BA
:1026700069460548FFF70CF9002801D0FEF7CFF9AD
:102680000AB010BD000C0040D80000201CB500248A
:102690000E4800940C49019401604721C0E90114DF
:1026A0004FF6FF718461C160FEF736FF08B1FEF797
:1026B000B6F90094694605480194FEF7EFFE00283C
:1026C00001D0FEF7ACF91CBD001000402001002035
:1026D0000E4810B50C4901604FF4E1314160002112
:1026E00081600C22C160C0E904128161C161FFF701
:1026F0000DFD08B1FEF793F9BDE810400122044931
:102700000248FFF775BD0000003801407801002045
:1027100000000020FEE7000070B50C46064E654242
:1027200038B100F041F8002C00DA2C4630684463E0
:1027300070BD00F049F8F6E79000002070B50C4637
:10274000064E654238B100F04FF8002C00DA2C46F6
:102750003068846370BD00F057F8F6E79000002001
:1027600070B50C46064E654238B100F05DF8002C9D
:1027700000DA2C463068C46370BD00F065F8F6E7F7
:102780009000002070B50C46064E654238B100F04E
:102790006BF8002C00DA2C463068046470BD00F041
:1027A00073F8F6E79000002010B5064C01220221D4
:1027B0002046FEF73EFB20460022BDE810400121E6
:1027C000FEF737BB0010014010B5064C0022022175
:1027D0002046FEF72EFB20460122BDE810401146A0
:1027E000FEF727BB0010014010B5064C0122042162
:1027F0002046FEF71EFB20460022BDE810400821BF
:10280000FEF717BB0010014010B5064C0022042152
:102810002046FEF70EFB20460122BDE810400821AD
:10282000FEF707BB0010014010B5064C0122402105
:102830002046FEF7FEFA20460022BDE81040802127
:10284000FEF7F7BA0010014010B5064C00224021F7
:102850002046FEF7EEFA20460122BDE81040802116
:10286000FEF7E7BA0010014010B5064C0122110234
:102870002046FEF7DEFA002261152046BDE8104032
:10288000FEF7D7BA0010014010B5074C00224FF4F4
:1028900080712046FEF7CDFA20460122BDE81040A7
:1028A0005102FEF7C6BA000000100140FEE700002A
:1028B00006490020C86008611431C86008611431FD
:1028C000C86008611431C86008617047FC010020CD
:1028D000044B4FF4005108B1012200E000221846D9
:1028E000FEF7A7BA00100140044B08B1012200E036
:1028F000002220211846FEF79CBA0000001001407B
:10290000044B4FF4804108B1012200E00022184638
:10291000FEF78FBA001001402DE9F0473348817867
:102920005A294FD1C278012121EA02048246034686
:10293000D2430930C2F3401C4474C2F3C00484740F
:10294000C2F30014C47280F809C0C2F3801880F882
:102950000C80C2F3C017A14687721C79A143817114
:10296000E143C1F340040472C1F380044471C1F334
:10297000C004C471C1F30016C1F34015C673C1F39E
:10298000801445730474C1F3C01181739AF8013047
:10299000412B19D05146732B14D1C2F34003C37499
:1029A000C2F380020275CA79803AC2700A7AD243B1
:1029B000803202714A79803A42709AF80610C9430F
:1029C00080318170BDE8F087ACEB0702C2EBC21228
:1029D000C270A9EB0802C2EBC212691A0271C1EB04
:1029E000C1114170311BC1EBC111EAE7DC010020CC
:1029F000002000BF401CBF28FBDB704770B50026DD
:102A000004463546E00700D00120FFF779FF64084F
:102A10000120FFF75DFFFFF7EBFF0020FFF758FFF6
:102A2000760800F00FF846EAC010C6B2FFF7E0FFE4
:102A30000120FFF74DFFFFF7DBFF6D1C082DE1DBE9
:102A4000304670BD10210148FEF7EEB9001001407C
:102A500070B50020FFF748FF0120FFF7CFFF0A4DB8
:102A600028704220FFF7CAFF68700224FF20FFF79A
:102A7000C5FF2855641C092CF8DB0120FFF734FF43
:102A8000BDE87040FFF748BFDC0100207047704789
:102A900070B5234C234D002021882A8800F0E4FCE7
:102AA0004FF4FA66B6EB400F01DA304605E02188B4
:102AB0002A88002000F0D8FC4000288161886A88BC
:102AC000012000F0D1FCB6EB400F01DA304605E002
:102AD00061886A88012000F0C7FC40006881A188F5
:102AE000AA88022000F0C0FCB6EB400F01DA3046A5
:102AF00005E0A188AA88022000F0B6FC4000A88169
:102B0000E188EA88032000F0AFFCB6EB400F05DB5C
:102B1000E188EA88032000F0A7FC4600EE8170BD42
:102B200028000020300000200348018A01804180F5
:102B30008180C1807047000030000020FEF784B91A
:102B400030B58FB028216846FDF727FB14210AA86D
:102B5000FDF723FB0920012100904FF48030002471
:102B600004910691CDE901040225CDE907504FF407
:102B7000E01009906846FEF7EBFA08B172B6FEE77E
:102B80000F20CDE90A054FF48060CDE90C40022109
:102B90000AA80E94FEF7F0F9002801D072B6FEE7FD
:102BA0000FB030BD704700000148FEF7A1BF000024
:102BB000D8000020F0B502681C4B1D4D1D4E1E4F65
:102BC0001E4C4FF0804C984209D0A04207D060457F
:102BD00005D0A84203D0B04201D0B84204D122F0BF
:102BE000700E4A6842EA0E02984209D0A04207D00D
:102BF000604505D0A84203D0B04201D0B84203D10D
:102C000022F44075CA682A434D6922F080022A43A3
:102C100002608A68C2620A688262984201D0A04259
:102C200001D10969016301214161F0BD002C01401E
:102C30000004004000080040000C00400034014047
:102C400010B501F01F030121046A99408C4304620E
:102C5000016A9A401143016210BD10B5846842EACE
:102C6000032224F47F440A432243826010BD826819
:102C700022F070020A4342F00701816070470000B1
:102C8000F0B5026A22F001020262036A42688469B6
:102C9000124E24F073050C682C4323F002058B6858
:102CA0002B430D4DA84201D0B04205D123F00807B7
:102CB000CB683B4323F00403A84201D0B04205D1C6
:102CC0004D6922F4407215438A692A434260846147
:102CD000496841630362F0BD002C014000340140AB
:102CE000F0B5026A22F010020262026A4368846947
:102CF0000D6824F4E64444EA05248D6822F020029D
:102D000042EA05120F4D104EA84201D0B04206D142
:102D1000CF6822F0800242EA071222F04002A84265
:102D200001D0B04207D14D6923F4406343EA8503E3
:102D30008D6943EA85034360846149688163026267
:102D4000F0BD0000002C014000340140F0B5026AE3
:102D500022F480720262026A4368C46922F400723B
:102D600024F073050C68124E2C438D6842EA05224C
:102D70000E4DA84201D0B04206D1CF6822F40062C5
:102D800042EA072222F48062A84201D0B04207D171
:102D90004D6923F4405343EA05138D6943EA051353
:102DA0004360C4614968C1630262F0BD002C014008
:102DB0000034014030B5026A22F480520262046A93
:102DC0004268C3690D6823F4E64343EA05238D682E
:102DD00024F4005444EA0534084DA84202D0084DBA
:102DE000A84204D14D6922F4804242EA8512426031
:102DF000C36149680164046230BD0000002C0140D9
:102E00000034014010B5036A046A24F0010404622E
:102E1000846924F0F00444EA021423F00A020A430D
:102E20008461026210BD000070B5046A24F00104E0
:102E300004628469056A124EB0420ED0114EB0424F
:102E40000BD0B0F1804F08D00F4EB04205D00F4EDE
:102E5000B04202D00E4EB04203D124F0030414431A
:102E600001E044F001041A0724F0F00444EA12627D
:102E700025F00A0301F00A0119438261016270BD65
:102E8000002C0140003401400004004000080040D4
:102E9000000C004010B5036A23F01003036283693D
:102EA000046A23F4704343EA023224F0A00343EAA5
:102EB00001118261016210BD30B5046A24F0100472
:102EC00004628469056A24F4407444EA022222F40C
:102ED00070444FF6FF7202EA03322243A02425F029
:102EE000A00304EA011119438261016230BD10B5EB
:102EF000406A0021C185C184FFF700F810BD016858
:102F0000CA6822F49072CA6001684A6922F001021C
:102F10004A61016B012904D10168CA6822F01002DC
:102F2000CA60202180F83E1000210163704708B577
:102F300090F83E10222901D0022008BD82684FF48B
:102F400080539A4201D1016921B1816A9A421BD012
:102F50004AB10AE00268816A5268C2F308020A8034
:102F6000816A891C08E0026972B10268526802F045
:102F70007F020A70816A491C8162C18D491E090461
:102F8000090CC18503D019E002685268F1E70168B5
:102F9000CA6822F02002CA600168CA6822F48072FE
:102FA000CA6001684A6922F001024A61202180F862
:102FB0003E10016B012903D0FFF730F9002008BD56
:102FC000002101630168CA6822F01002CA6001682A
:102FD0000A68D20602D50A6849680091818DFEF719
:102FE0008CFFEBE770B5044600680169E26821F4E4
:102FF0004051114301612169A06808436169084398
:103000002168CA6841F20C639A430243CA6020688F
:103010004169A26921F44071114341611E49206850
:10302000884202D1FEF74EF801E0FEF73BF800EBD4
:10303000C00101EB0012606864218000B2FBF0F374
:10304000B3FBF1F36FF018067343B2FBF0F5B2FB7C
:10305000F0F605EB8305322303EB0515B5FBF1F51F
:10306000B6FBF1F605F0F00505EB0615B2FBF0F640
:10307000B2FBF0F0B0FBF1F06FF01802504306EB3A
:10308000800003EB0010B0FBF1F0216800F00F00AE
:103090002844886070BD000000380140816282854C
:1030A000C28500210164222280F83E2080F83C1075
:1030B0000168CA6842F48072CA6001684A6942F0D5
:1030C00001024A610068C16841F02001C16000202E
:1030D00070472DE9F041984617460E460446069D76
:1030E0001DE0681C1BD02DB1FDF7A8FEA0EB080069
:1030F000A84214D92068C16821F4D071C160206849
:10310000416921F001014161202084F83D0084F8EB
:103110003E00002084F83C000320BDE8F0812068D8
:10312000006836EA000004D00020B842D9D0002060
:10313000F3E70120F9E700000148FEF7E1BE0000D7
:1031400078010020FEE700000FB4054B10B503A97D
:10315000044A029800F028F810BC5DF814FB000047
:1031600085330008440000200907090E002804DB0D
:1031700000F1E02080F80014704700F00F0000F12B
:10318000E02080F8141D704702E008C8121F08C133
:10319000002AFAD170477047002001E001C1121FD8
:1031A000002AFBD1704700002DE9FF4F89B09B46F4
:1031B0000446002506E025280BD05A460B99904777
:1031C000641C6D1C20780028F5D10DB02846BDE8A0
:1031D000F08F0027B8460122474900E0074314F862
:1031E000013F203B02FA03F00842F7D120782E2855
:1031F00019D114F8010F47F004072A280ED06FF0F8
:103200002F022078A0F1300109290CD808EB8801A1
:1032100002EB410100EB0108641CF2E70A98641C10
:1032200050F8048B0A9020780028CED0642808D06B
:10323000692806D075281ED05A460B9990476D1CF8
:1032400058E00A994FF00A0901C90A91002802DAE8
:1032500040422D2102E0390504D52B218DF82010A4
:10326000012103E0F90704D02021F7E78A4608AEE0
:103270000DE00021FAE70A994FF00A0901C90A9105
:10328000F7E74946FDF79EF9303106F8011D0028A1
:10329000F7D1ADEB060000F12009780701D44FF01B
:1032A0000108C84502DDA8EB090000E000208046C7
:1032B000002706E008A85A46C05D0B9990476D1C90
:1032C0007F1C5745F6DB04E030205A460B999047A7
:1032D0006D1CB8F10001A8F10108F5DC05E016F855
:1032E000010B5A460B9990476D1CB9F10001A9F1E9
:1032F0000109F4DC641C65E7092801000F494FF05F
:103300007F500E4A0860002048608860C8600861ED
:1033100014320C4B0A49C2E90013C2E902101061D1
:103320001432C2E90013C2E9021010611432C2E97A
:103330000013C2E90210106170470000FC01002078
:10334000CDCCCC3DCDCC4C3E70B501223024411EBD
:1033500010E0836806695D5C303D05FB0265056130
:103360005C54C36802EB82025B1EC3608368520038
:103370005B1E8360C368012BEBDA00218160C160B2
:1033800070BD000013B54FF47A73012269460248FC
:10339000FEF788FF00981CBD7801002008B5FDF7F6
:1033A0005BFDFFF7CDFBFEF7D9FFFFF791F9FFF7C4
:1033B00091F8FFF73DF8FFF705F9FFF767F91948AE
:1033C000FEF748F900211748FEF718FB04211548BD
:1033D000FEF714FB08211348FEF710FB0C211148DF
:1033E000FEF70CFBFFF78AFF0FA0FFF7ADFE164CB0
:1033F000FFF72EFB94F90200009094F9013094F944
:10340000042094F9031011A0FFF79EFEFDF7E6FAE1
:10341000FFF78AFBFFF73CFBFDF7A2F90A20FDF757
:10342000F5FBE5E7D8000020696E70757420666FC3
:10343000726D6174203A20646174612B5B737061FA
:1034400063655D0A00000000E50100204C583A2544
:1034500064204C593A25642052583A256420525928
:103460003A25640D0A0000002DE9F04730B101282B
:1034700006D0022807D003280AD107E0254C07E030
:10348000244C143404E0234C283401E0214C3C3417
:10349000501AFDF736F8804641462068FCF7E0FEFA
:1034A000814641462069FCF783FE01462061606841
:1034B0000746FCF7D5FE184E0546B04204DD3946F6
:1034C0003046FCF7FFFE20611448854203D9394697
:1034D000FCF7F8FE20614046E168FCF7BBFE0146C0
:1034E000A068FCF7BDFE074629464846C4F80C8094
:1034F000FCF75EFE3946FCF75BFEB04201DD30466C
:1035000003E010F1FF4F00D30020BDE8F047FDF7C6
:103510000EB80000FC0100200000FA440000FAC4CC
:103520000000000000000000010203040607080973
:1035300000000000010203045835000800000020CC
:103540004800000088310008A0350008480000202D
:1035500008060000983100080000000030303030CC
:1035600030300000000000000000000000000000FB
:103570000100000010000000000000000024F40022
:10358000000000000000000000000000000000003B
:103590000000000000000000F40100000000000036
:0400000508000131BD
:00000001FF
